:100000000C9493000C942F080C9408080C94BB00DB
:100010000C94BB000C94BB000C94BB000C94BB0074
:100020000C94BB000C94BB000C94BB000C94BB0064
:100030000C94BB000C94BB000C94BB000C94BB0054
:100040000C94BE070C94BB000C948D070C946707AE
:100050000C94BB000C94BB000C94BB000C94BB0034
:100060000C94BB000C94BB0000000000240027008F
:100070002A0000000000250028002B0000000000DE
:1000800023002600290004040404040404040202DA
:100090000202020203030303030301020408102007
:1000A0004080010204081020010204081020000012
:1000B0000008000201000003040700000000000027
:1000C0000000003022416D527C20390F2170084021
:1000D00008523F065B4F666D7D077F6F4848394881
:1000E0000F535F777C395E79713D76061E76381541
:1000F000373F7367316D783E1C2A766E5B39640F2B
:10010000230820777C585E79716F74041E76181569
:10011000545C7367506D781C1C2A766E5B39300F07
:10012000400056085A0D11241FBECFEFD8E0DEBFA5
:10013000CDBF23E0A0E4B1E001C01D92A93EB2070B
:10014000E1F711E0A0E0B1E0E0E4F3E202C00590E5
:100150000D92A034B107D9F710E0C2E9D0E004C095
:100160002197FE010E949B0FC139D107C9F70E9458
:10017000BE090C9493110C940000E82F803B51F0C1
:1001800080EE8E0F803640F4E052FF0BEE53FF4FAF
:100190008491089583E6089580E00895AF92BF9218
:1001A000CF92DF92EF92FF920F931F93CF93DF9343
:1001B0006C017B018B01040F151FEB015E01AE1872
:1001C000BF08C017D10759F06991D601ED91FC9194
:1001D0000190F081E02DC6010995892B79F7C501C1
:1001E000DF91CF911F910F91FF90EF90DF90CF9013
:1001F000BF90AF9008950895FC01538D448D252F35
:1002000030E0842F90E0821B930B541710F0CF96B0
:10021000089501970895FC01918D828D981759F0EA
:10022000A28DAE0FBF2FB11D5D968C91928D9F5FF9
:10023000928F90E008958FEF9FEF0895FC01918DCC
:10024000828D981731F0828DE80FF11D858D90E039
:1002500008958FEF9FEF0895FC01918D828D981B7B
:10026000892F90E008958BEB91E00E942C0121E012
:10027000892B09F420E0822F0895FC01A48DA80F9A
:10028000B92FB11DA35EBE4F2C91848D90E00196D5
:100290008F739927848FA689B7892C93A089B189F8
:1002A0008C91837080648C93938D848D981306C099
:1002B0000288F389E02D80818F7D80830895EF92FD
:1002C000FF920F931F93CF93DF93EC0181E0888F10
:1002D0009B8D8C8D98131AC0E889F989808185FFE0
:1002E00015C09FB7F894EE89FF896083E889F98982
:1002F00080818370806480839FBF81E090E0DF9184
:10030000CF911F910F91FF90EF900895F62E0B8DD6
:1003100010E00F5F1F4F0F731127E02E8C8D8E1191
:100320000CC00FB607FCFACFE889F989808185FFF8
:10033000F5CFCE010E943D01F1CFEB8DEC0FFD2FEB
:10034000F11DE35EFE4FF0829FB7F8940B8FEA89B0
:10035000FB8980818062CFCFCF93DF93EC01888DC2
:100360008823B9F0AA89BB89E889F9898C9185FD30
:1003700003C0808186FD0DC00FB607FCF7CF8C91BE
:1003800085FFF2CF808185FFEDCFCE010E943D0138
:10039000E9CFDF91CF910895833081F028F4813047
:1003A00099F08230A9F008958730A9F08830C9F01B
:1003B0008430B1F4809180008F7D03C080918000F3
:1003C0008F7780938000089584B58F7784BD0895DA
:1003D00084B58F7DFBCF8091B0008F778093B00084
:1003E00008958091B0008F7DF9CFCF93DF93282FB0
:1003F00030E0F901E255FF4F8491F901E656FF4FD5
:10040000D491F901EA57FF4FC491CC23A1F0811197
:100410000E94CC01EC2FF0E0EE0FFF1FE458FF4FDD
:10042000A591B491EC91ED2381E090E009F480E096
:10043000DF91CF91089580E090E0FACFCF93809143
:10044000A0039091A503992339F00E94F501C1E022
:10045000892B39F0C0E005C00E94F501C1E0892B6D
:10046000C9F38091A503882349F08091A1030E94DC
:10047000F50121E0892B49F020E007C08091A1031C
:100480000E94F50121E0892BB9F390E080E0C217CA
:1004900031F081E090E0211102C082E090E0CF9144
:1004A00008951F93CF93DF93282F30E0F901E25591
:1004B000FF4F8491F901E656FF4FD491F901EA57B5
:1004C000FF4FC491CC23A9F0162F81110E94CC01BB
:1004D000EC2FF0E0EE0FFF1FEE58FF4FA591B49107
:1004E0008FB7F894EC91111108C0D095DE23DC93FE
:1004F0008FBFDF91CF911F910895DE2BF8CFCF935F
:10050000DF9390E0FC01E656FF4F24918A579F4FFE
:10051000FC0184918823C9F090E0880F991FFC01A9
:10052000E859FF4FA591B491FC01EE58FF4FC591DA
:10053000D49161110DC09FB7F8948C9120958223BE
:100540008C938881282328839FBFDF91CF910895C2
:10055000623051F49FB7F8943C91822F80958323A9
:100560008C93E8812E2BEFCF8FB7F894EC912E2B44
:100570002C938FBFEACF3FB7F894809145019091BB
:100580004601A0914701B091480126B5A89B05C03E
:100590002F3F19F00196A11DB11D3FBFBA2FA92F02
:1005A000982F8827BC01CD01620F711D811D911DFF
:1005B00042E0660F771F881F991F4A95D1F708956B
:1005C0008F929F92AF92BF92CF92DF92EF92FF9263
:1005D0006B017C010E94BB024B015C01C114D10480
:1005E000E104F104B9F00E94BB02681979098A0993
:1005F0009B09683E73408105910580F321E0C21A92
:10060000D108E108F10888EE880E83E0981EA11C4D
:10061000B11CE4CFFF90EF90DF90CF90BF90AF90F0
:100620009F908F9008952FB7F89460914101709139
:10063000420180914301909144012FBF0895089594
:10064000FC01828193818230910538F0880F991FD7
:10065000880F991F05970197F1F70895EF92FF9280
:100660000F931F93CF93DF93EC01062F18E061E007
:1006700088810E947F02CE010E942003E02EF12C8F
:1006800060E000FF61E089810E947F02CE010E944C
:10069000200360E088810E947F02CE010E94200337
:1006A000F594E7940E2D115011F761E088810E94B6
:1006B0007F0260E089810E947F02CE010E942003B8
:1006C00060E088810E947F02CE010E942003898120
:1006D0000E94F501182F811104C061E089810E94F8
:1006E0007F02CE010E94200361E088810E947F0288
:1006F000CE010E94200381E0111101C080E0DF9152
:10070000CF911F910F91FF90EF900895CF93DF93BA
:10071000EC0161E089810E947F02CE010E942003EA
:1007200060E088810E947F02CE010E94200360E089
:1007300089810E947F02CE01DF91CF910C9420032A
:10074000CF93DF93EC0161E089810E947F02CE01AB
:10075000DF91CF910C942003EF92FF920F931F93A0
:10076000CF93DF93EC017B010E94A00360E4CE01F4
:100770000E942E03CE010E948603CE010E94A00398
:1007800063ECCE010E942E0387010A5F1F4FF80120
:1007900062918F01CE010E942E030E151F05B9F73D
:1007A000CE010E948603CE010E94A0036C856F706B
:1007B0006058CE010E942E03CE01DF91CF911F9190
:1007C0000F91FF90EF900C948603DC01ED91FC916A
:1007D0000190F081E02D0994DC011296ED91FC91DD
:1007E000309729F00190F081E02DCB010994089514
:1007F0000F931F938091A0039091A50391113EC088
:100800000E94F501892BF1F18091A6038823D1F193
:100810000E9413030091A9031091AA032091AB0336
:100820003091AC03AB01BC01401B510B620B730B4D
:100830008091A3039091A403B0E0A0E0481759076A
:100840006A077B07F8F00E9413036093A903709373
:10085000AA038093AB039093AC038091A5038823F4
:10086000A1F08091A1030E94F501892BA1F481E000
:1008700090E09093A8038093A70304C00E94F50121
:10088000892B11F21F910F9108958091A1030E946D
:10089000F501892B61F782E090E0EBCF0895EF92AC
:1008A000FF920F931F93CF930AE113E08CE993E03B
:1008B000F80111928E179F07E1F78FE190E0019701
:1008C000F1F7C0E08FE1E82EF12C809118039091B0
:1008D0001903DC01ED91FC910084F185E02D09956F
:1008E000892BA9F0C238B9F08091180390911903AF
:1008F000DC01ED91FC910284F385E02D0995F8016E
:1009000081938F01CF5FC7010197F1F7DECF81E0BF
:1009100090E0C73068F08C2F90E0FC01E85EFC4F5F
:1009200020812D30C1F021812A30A9F082E090E0B1
:1009300090939D0380939C038DE00E94F50161E0FC
:10094000892B09F060E08DE0CF911F910F91FF900E
:10095000EF900C94510220911B03821B9109069782
:1009600019F083E090E0E4CF80911A03813019F010
:1009700084E090E0DDCF80911C0390911D03222341
:10098000D9F28230910509F453C0C0F5009709F4FB
:1009900043C0019709F44AC027EF39E24FE050E421
:1009A0006091490170914A0180914B0190914C01F5
:1009B0000E94FE0D6093490170934A0180934B01A0
:1009C00090934C0127EF39E24FE050E460915D01D4
:1009D00070915E0180915F01909160010E94FE0D17
:1009E00060935D0170935E0180935F01909360015D
:1009F000CF911F910F91FF90EF9008958330910553
:100A0000E9F0049749F680911E0390911F0390939B
:100A1000B6018093B501C0CF8EE6EEE1F3E0A9E424
:100A2000B1E001900D928A95E1F7B6CF82E5F5CF5E
:100A300081E1EEE1F3E0ABE9B1E0F3CF89E0EEE193
:100A4000F3E0ACEAB1E0EDCF0E94330181110C94E8
:100A50004F0408950F931F93CF93DF93EC010E94EF
:100A600013030A8D1B8D2C8D3D8DAB01BC01401BEA
:100A7000510B620B730B89859A85B0E0A0E0481793
:100A800059076A077B0708F461C08B858F7C8B87C9
:100A90000E9413036A8F7B8F8C8F9D8F8B8586FFBF
:100AA00047C088850E94F501892B09F047C08B85D6
:100AB00081608B878B8580FD44C083FF42C0857F2A
:100AC00084608B870E94130328893989621B730B0A
:100AD0007F876E87BE01645F7F4FCE010E94EC036B
:100AE0008B858970893041F40E94130328893989E4
:100AF000621B730B7F876E878B8580FF25C083FD0C
:100B000023C08A608B870E941303688B798B8A8B42
:100B10009B8B6E8B7F8B888F998FBE016C5E7F4F16
:100B2000CE010496DF91CF911F910F910C94EC03AD
:100B300088850E94F501892B09F0B9CF8B858E7FBE
:100B4000B8CF8B7F8B87CCCF8D7F8B87DF91CF9179
:100B50001F910F9108950F931F93CF93DF938C01F3
:100B6000EB0182E090E00E94A10FF8019383828361
:100B7000FC01D183C083DF91CF911F910F91089524
:100B8000FC0180819181009711F00C943D10089533
:100B9000AF92BF92CF92DF92EF92FF920F931F938B
:100BA000CF93DF93EC018B017C0186E0E80EF11C12
:100BB00086E0F70111928A95E9F7FB010190002088
:100BC000E9F73197E61BF70B3797E0F457016B0114
:100BD000F80101900020E9F73197E01BF10BC60105
:100BE000801B910B8E179F0748F4F60181916F01CE
:100BF0000E94BD00F50181935F01EACFB701CE01EC
:100C00000E94AC03F80101900020E9F73197E01B46
:100C1000F10B379708F464C06801F5E0CF0ED11CE2
:100C200058018F818E8388858F83898588878A85FF
:100C300089878B858A87F50181915F010E94BD00BC
:100C40008B87B701CE010E94AC036C817D8190E05F
:100C500080E00E94E002CA14DB0419F7F801019059
:100C60000020E9F73197E01BF10BC601801B910BC7
:100C70008E179F07D8F48F818E8388858F8389850F
:100C800088878A8589878B858A87F60181916F019C
:100C90000E94BD008B87B701CE010E94AC036C811E
:100CA0007D8190E080E00E94E002D8CF06E010E075
:100CB0008F818E8388858F83898588878A858987B8
:100CC0008B858A871B86B701CE010E94AC036C819D
:100CD0007D8190E080E00E94E0020150110941F71F
:100CE000DF91CF911F910F91FF90EF90DF90CF9008
:100CF000BF90AF9008950F931F93CF93DF93EC01B4
:100D000088819981009759F02A813B8126173707FE
:100D100030F081E0DF91CF911F910F9108958B0109
:100D20006F5F7F4F0E94C610009759F099838883A8
:100D30001B830A832C813D81232B59F7FC011082F0
:100D4000E8CF80E0E7CFCF93DF93EC0119821882E0
:100D50001B821A821D821C8270E060E00E947B066A
:100D60002881398181110FC02115310519F0C90180
:100D70000E943D10198218821D821C821B821A82D9
:100D8000DF91CF9108951D821C826EE371E0C9014D
:100D9000DF91CF910C948C11EF92FF920F931F93E0
:100DA000CF93DF9341155105B1F07B01EC010C812C
:100DB0001D81040F151FB8010E947B06882361F076
:100DC000288139818C819D81B701820F931F0E94F8
:100DD0008C111D830C8381E0DF91CF911F910F91C6
:100DE000FF90EF900895EF92FF920F931F93CF9390
:100DF000DF93CDB7DEB72E970FB6F894DEBF0FBEE8
:100E0000CDBF7C01CB01BA012AE08E010F5F1F4FDD
:100E1000A8010E947A0DF80101900020E9F73197AE
:100E2000AF01401B510BB801C7010E94CC062E96A2
:100E30000FB6F894DEBF0FBECDBFDF91CF911F91EB
:100E40000F91FF90EF900895EF92FF920F931F93F1
:100E5000CF93DF93CDB7DEB728970FB6F894DEBFF8
:100E60000FBECDBF7C01CB014AE08E010F5F1F4F4B
:100E7000B8010E946F0DF80101900020E9F7319749
:100E8000AF01401B510BB801C7010E94CC06289648
:100E90000FB6F894DEBF0FBECDBFDF91CF911F918B
:100EA0000F91FF90EF900895CF93DF9300D0CDB7CF
:100EB000DEB769831A8241E050E0BE016F5F7F4F69
:100EC0000E94CC060F900F90DF91CF9108951F9252
:100ED0000F920FB60F9211242F933F934F935F936E
:100EE0006F937F938F939F93AF93BF93EF93FF93F2
:100EF0008BEB91E00E943D01FF91EF91BF91AF918B
:100F00009F918F917F916F915F914F913F912F9121
:100F10000F900FBE0F901F9018951F920F920FB653
:100F20000F9211242F938F939F93EF93FF93E09150
:100F3000CB01F091CC018081E091D101F091D201FF
:100F400082FD1AC090818091D4018F5F2091D501DC
:100F5000821741F0E091D401F0E0E554FE4F958F07
:100F60008093D401FF91EF919F918F912F910F90DA
:100F70000FBE0F901F9018958081F4CF1F920F9293
:100F80000FB60F9211242F933F938F939F93AF939C
:100F9000BF938091410190914201A0914301B09192
:100FA00044013091400123E0230F2D3758F501967D
:100FB000A11DB11D209340018093410190934201F6
:100FC000A0934301B0934401809145019091460163
:100FD000A0914701B09148010196A11DB11D8093D8
:100FE000450190934601A0934701B0934801BF91FA
:100FF000AF919F918F913F912F910F900FBE0F90C6
:101000001F90189526E8230F0296A11DB11DD2CF7F
:101010001F920F920FB60F9211242F933F934F936D
:101020005F936F937F938F939F93AF93BF93EF9350
:10103000FF93E0910201F09103010995FF91EF9177
:10104000BF91AF919F918F917F916F915F914F91E0
:101050003F912F910F900FBE0F901F9018951F92E8
:101060000F920FB60F9211242F933F934F935F93DC
:101070006F937F938F939F93AF93BF93EF93FF9360
:10108000E0910001F09101010995FF91EF91BF916D
:10109000AF919F918F917F916F915F914F913F9110
:1010A0002F910F900FBE0F901F901895CF92DF9247
:1010B000EF92FF920F931F93CF931092BE01109265
:1010C000BD0188EE93E0A0E0B0E08093BF01909373
:1010D000C001A093C101B093C2018FE091E0909351
:1010E000BC018093BB0185EC90E09093C801809394
:1010F000C70184EC90E09093CA018093C90180EC11
:1011000090E09093CC018093CB0181EC90E09093A0
:10111000CE018093CD0182EC90E09093D00180933A
:10112000CF0186EC90E09093D2018093D101109290
:10113000D4011092D5011092D6011092D70188E007
:101140008093CB0387E08093CC0304E610E01093F8
:10115000CE030093CD031093D0030093CF0360E040
:1011600088E00E947F0260E08091CC030E947F02B1
:1011700060E08091CB030E94510260E08091CC033B
:101180000E94510286E08093D80385E08093D903C2
:101190001093DB030093DA031093DD030093DC0369
:1011A00060E086E00E947F0260E08091D9030E94A7
:1011B0007F0260E08091D8030E94510260E080913C
:1011C000D9030E94510282E08093A00383E08093C0
:1011D000A1031092A20389E190E09093A40380936D
:1011E000A30381E08093A5038093A6031092A90333
:1011F0001092AA031092AB031092AC0362E082E05B
:101200000E947F028091A50360E0811162E08091DD
:10121000A1030E947F028091A50360E0811162E03A
:101220008091A2030E947F028091A503811172C068
:1012300083E090E090939F0380939E0381E291E08E
:101240009093AE038093AD031092B0031092AF035E
:101250009093B2038093B1031092B4031092B3033E
:1012600084E08093B5038EE190E09093B703809380
:10127000B6031092BC031092BB031092BD031092F0
:10128000BE031092BF031092C0031092BA031092D3
:10129000B9031092C3031092C4031092C5031092B5
:1012A000C6031092C2031092C103C091BA01C111CA
:1012B00034C082E090E00E94A10F9093B901809326
:1012C000B8012DEA33E0FC013183208381E0809373
:1012D000BA018091B80380648093B80362E084E02F
:1012E0000E947F028DEA93E09093BA038093B90342
:1012F0009093C2038093C1038BEB91E09093190309
:1013000080931803CF911F910F91FF90EF90DF9082
:10131000CF90089582E090E08DCF0C2F10E068010F
:10132000CC0CDD1CC6010E94A10F7C016091B801AC
:101330007091B901A6010E948311C8010196880F1E
:10134000991F0E94A10F8C019093B9018093B8015D
:10135000A601B7010E9483110C0D1D1D8DEA93E0BB
:10136000F80191838083CF5FC093BA01E114F10447
:1013700009F4AFCFC7010E943D10ABCFCF93DF93ED
:1013800000D000D000D0CDB7DEB7789484B58260AD
:1013900084BD84B5816084BD85B5826085BD85B519
:1013A000816085BD80916E00816080936E00109297
:1013B0008100809181008260809381008091810012
:1013C00081608093810080918000816080938000A3
:1013D0008091B10084608093B1008091B000816001
:1013E0008093B00080917A00846080937A0080912D
:1013F0007A00826080937A0080917A008160809385
:101400007A0080917A00806880937A001092C100FF
:1014100061E08DE00E947F026EE474E081EB93E076
:101420000E94E5036BEF70E08DEA93E00E94E50314
:1014300090919E0328EF33E0309301012093000147
:10144000809169008C7F892B80936900E89A8FE0F6
:101450008093D7038093E403E091CB01F091CC011A
:1014600082E08083E091C701F091C8011082E09191
:10147000C901F091CA0181E080831092D301E0910B
:10148000CF01F091D00186E08083E091CD01F09111
:10149000CE01808180618083E091CD01F091CE0109
:1014A000808188608083E091CD01F091CE018081C0
:1014B00080688083E091CD01F091CE0180818F7DA5
:1014C000808367E271E08BEC93E00E94C8056EE2D6
:1014D00071E088ED93E00E94C805F12C8091BA017B
:1014E000F81690F48F2D90E0880F991FE091B801C5
:1014F000F091B901E80FF91F80819181009711F0F7
:101500000E942A05F394EACF8DEA93E00E942A050F
:101510009091B8038091A60390FF36C081111DC041
:101520000E941E028130910509F1029739F18091E4
:101530007101882309F4B1C28091B701813009F4A7
:101540001DC108F449C0823009F4D1C10E943301A1
:10155000882319F20E944F04C0CF8091A703909175
:10156000A8031092A8031092A703DCCF8091B701C3
:101570008823E9F281508093B701D9CF8091B701D8
:101580008230A8F68F5FF7CF81110DC00E941E0236
:101590008130910589F0029751F6809104018730DE
:1015A00090F48F5F0EC08091A7039091A8031092D2
:1015B000A8031092A703ECCF80910401882319F0AF
:1015C000815080930401809104018770886080932A
:1015D000D7038093E403ABCFCE0101960E94A3060C
:1015E00060915D0170915E0180915F019091600159
:1015F0000E94650FCE0101960E942407C0905D01F4
:10160000D0905E01E0905F01F090600120E030E05A
:1016100040E251E4C701B6010E94D50D87FF05C025
:1016200060E2CE0101960E94540720E030E048ECD1
:1016300052E4C701B6010E94D50D87FF05C060E2E4
:10164000CE0101960E945407C0904901D0904A01F2
:10165000E0904B01F0904C0120E030E040E251E49A
:10166000C701B6010E94D50D87FF05C060E2CE011B
:1016700001960E94540720E030E048EC52E4C70194
:10168000B6010E94D50D87FF05C060E2CE0101962C
:101690000E945407C701B6010E94650F9B0177FFA6
:1016A00004C022273327261B370BB901CE01019630
:1016B0000E94240769817A818BEC93E00E94C8051F
:1016C000CE0101960E94C005CE0101960E94A3069C
:1016D00060914D0170914E0180914F0190915001A8
:1016E0000E94650FCE0101960E942407C0904D0113
:1016F000D0904E01E0904F01F090500120E030E09A
:101700004AE754E4C701B6010E94D50D87FF05C022
:1017100060E2CE0101960E94540720E030E048ECE0
:1017200052E4C701B6010E94D50D87FF05C060E2F3
:10173000CE0101960E94540720E030E040E251E4DF
:10174000C701B6010E94D50D87FF05C060E2CE013A
:1017500001960E94540742E050E062E371E0CE013E
:1017600001960E94CC0669817A8188ED93E00E94FF
:10177000C805CE0101960E94C005E8CECE010196B3
:101780000E94A306C0906D01D0906E01E0906F01A1
:10179000F0907001F7FC33C08091B1019091B201DB
:1017A000A091B301B091B40182309105A105B105BA
:1017B000E9F018F10397A105B105D1F0612FCE0131
:1017C00001960E945407F7FE1CC044275527BA0112
:1017D0004C195D096E097F09CE0101960E94F3063E
:1017E0006DE2CE0101960E9454072EC013E5E6CFAC
:1017F0001CE4C0FCE3CF18E4E1CF11E4DFCF12E535
:10180000DDCF8091B1019091B201A091B301B0916F
:10181000B401B701A6010397A105B10529F4759597
:10182000679557954795D8CFCE0101960E94F3064C
:1018300080916D0190916E01A0916F01B091700146
:101840000A97A105B10564F260E2CE0101960E94FB
:101850005407C0904901D0904A01E0904B01F090AC
:101860004C0120E030E040E251E4C701B6010E94A3
:10187000D50D87FF05C060E2CE0101960E94540796
:10188000C701B6010E94650F9B0177FF04C02227A4
:101890003327261B370BB901CE0101960E9424077E
:1018A00069817A818BEC93E00E94C805CE01019694
:1018B0000E94C005CE0101960E94A30626EB33EFDD
:1018C0004DEC5FE360915501709156018091570195
:1018D000909158010E94F30E0E94650FCE0101966F
:1018E0000E94240742E050E065E371E038CFCE016A
:1018F00001960E94A3068091770160E281116DE25A
:10190000CE0101960E94540760915D0170915E01C5
:1019100080915F01909160010E94650FCE01019658
:101920000E94240720E030E040E251E460915D0134
:1019300070915E0180915F01909160010E94D50DD0
:1019400087FF05C060E2CE0101960E9454074091D6
:101950006D0150916E0160916F017091700177FF80
:1019600007C070956095509541955F4F6F4F7F4FC1
:10197000CE0101960E94F30680916D0190916E0157
:10198000A0916F01B09170010A97A105B1052CF4E7
:1019900060E2CE0101960E9454078091780160E2D6
:1019A00081116DE2CE0101960E94540769817A810E
:1019B0008BEC93E00E94C805CE0101960E94C00501
:1019C000CE0101960E94A3066091490170914A01DF
:1019D00080914B0190914C010E94650F9B0177FF14
:1019E00004C022273327261B370BB901CE010196ED
:1019F0000E94240720E030E040E251E46091490178
:101A000070914A0180914B0190914C010E94D50D3B
:101A100087FF05C060E2CE0101960E945407C09086
:101A20004D01D0904E01E0904F01F090500120E028
:101A300030E04AE754E4C701B6010E94D50D87FFA4
:101A400005C060E2CE0101960E94540720E030E01C
:101A500048EC52E4C701B6010E94D50D87FF05C0CE
:101A600060E2CE0101960E94540720E030E040E29F
:101A700051E4C701B6010E94D50D87FF05C060E2A1
:101A8000CE0101960E945407C701B6010E94650F5E
:101A9000CE0101960E94240766CE68E371E08BECCC
:101AA00093E00E94C80568E371E088ED93E00E942E
:101AB000C8054CCD9091BA01E091B801F091B901FF
:101AC00080E0981759F0219131912D5A334021F43B
:101AD000DF0112971D921C928F5FF3CF0895BB27F1
:101AE0004A3031F4992322F4BDE2909581959F4FBD
:101AF0000C94AC0DBB272A3051F4992342F4BDE27B
:101B000090958095709561957F4F8F4F9F4F0C9466
:101B10008A0DBB27FA01A62F621771058105910571
:101B2000330B30FB66F0AA27660F771F881F991FBB
:101B3000AA1FA21710F0A21B63953850A9F7A05D49
:101B4000AA3308F0A95DA19336F7B111B1931082C1
:101B5000CA010C94C50DBB27FB015527AA27880F86
:101B6000991FAA1FA41710F0A41B83955051B9F711
:101B7000A05DAA3308F0A95DA193009779F7B11190
:101B8000B1931192CB010C94C50DDC01FC01672FC0
:101B900071917723E1F7329704C07C916D93708344
:101BA0006291AE17BF07C8F308950E94DA0D08F4DA
:101BB00081E00895990F0008550FAA0BE0E8FEEFA9
:101BC00016161706E807F907C0F012161306E40701
:101BD000F50798F0621B730B840B950B39F40A26FA
:101BE00061F0232B242B252B21F408950A2609F4D8
:101BF000A140A6958FEF811D811D08950E94110EB1
:101C00000C94820E0E94740E38F00E947B0E20F01D
:101C1000952311F00C946B0E0C94710E11240C94FE
:101C2000B60E0E94930E70F3959FC1F3950F50E08E
:101C3000551F629FF001729FBB27F00DB11D639F7E
:101C4000AA27F00DB11DAA1F649F6627B00DA11D24
:101C5000661F829F2227B00DA11D621F739FB00DCA
:101C6000A11D621F839FA00D611D221F749F33273A
:101C7000A00D611D231F849F600D211D822F762FD3
:101C80006A2F11249F5750409AF0F1F088234AF0B0
:101C9000EE0FFF1FBB1F661F771F881F915050401C
:101CA000A9F79E3F510580F00C946B0E0C94B60E74
:101CB0005F3FE4F3983ED4F3869577956795B795A3
:101CC000F795E7959F5FC1F7FE2B880F911D9695BD
:101CD000879597F9089597F99F6780E870E060E02D
:101CE00008959FEF80EC089500240A9416161706B5
:101CF00018060906089500240A94121613061406FD
:101D000005060895092E0394000C11F4882352F05F
:101D1000BB0F40F4BF2B11F460FF04C06F5F7F4F17
:101D20008F4F9F4F089557FD9058440F551F59F0FE
:101D30005F3F71F04795880F97FB991F61F09F3FB8
:101D400079F087950895121613061406551FF2CFE1
:101D50004695F1DF08C0161617061806991FF1CF31
:101D600086957105610508940895E894BB27662758
:101D70007727CB0197F908952F923F924F925F9268
:101D80006F927F928F929F92AF92BF92CF92DF928B
:101D9000EF92FF920F931F93CF93DF93CDB7DEB7F0
:101DA000CA1BDB0B0FB6F894DEBF0FBECDBF099484
:101DB0002A88398848885F846E847D848C849B84DB
:101DC000AA84B984C884DF80EE80FD800C811B81E9
:101DD000AA81B981CE0FD11D0FB6F894DEBF0FBE18
:101DE000CDBFED0108950E94070F0C94820E0E9452
:101DF0007B0E58F00E94740E40F029F45F3F29F0EA
:101E00000C946B0E51110C94B60E0C94710E0E9432
:101E1000930E68F39923B1F3552391F3951B550B5A
:101E2000BB27AA2762177307840738F09F5F5F4FAD
:101E3000220F331F441FAA1FA9F335D00E2E3AF0EC
:101E4000E0E832D091505040E695001CCAF72BD004
:101E5000FE2F29D0660F771F881FBB1F2617370755
:101E60004807AB07B0E809F0BB0B802DBF01FF2787
:101E700093585F4F3AF09E3F510578F00C946B0EEB
:101E80000C94B60E5F3FE4F3983ED4F386957795B5
:101E90006795B795F7959F5FC9F7880F911D969540
:101EA000879597F90895E1E0660F771F881FBB1F9C
:101EB000621773078407BA0720F0621B730B840B49
:101EC000BA0BEE1F88F7E09508950E946C0F689496
:101ED000B1110C94B60E08950E949B0E88F09F5786
:101EE00098F0B92F9927B751B0F0E1F0660F771F3E
:101EF000881F991F1AF0BA95C9F714C0B13091F034
:101F00000E94B50EB1E008950C94B50E672F782F9E
:101F10008827B85F39F0B93FCCF3869577956795F8
:101F2000B395D9F73EF490958095709561957F4F64
:101F30008F4F9F4F0895EE0FFF1F0590F491E02DF6
:101F400009940F931F93CF93DF938230910510F480
:101F500082E090E0E091E703F091E80330E020E0D8
:101F6000B0E0A0E0309799F42115310509F44AC09A
:101F7000281B390B24303105D8F58A819B816115E6
:101F8000710589F1FB0193838283FE0111C04081B9
:101F900051810281138148175907E0F0481759070A
:101FA00099F4109761F012960C93129713961C9364
:101FB0003296CF01DF91CF911F910F910895009339
:101FC000E7031093E803F4CF2115310551F04217D0
:101FD000530738F0A901DB019A01BD01DF01F801C7
:101FE000C1CFEF01F9CF9093E8038093E703CDCF02
:101FF000FE01E20FF31F819391932250310939833F
:102000002883D7CF2091E5033091E603232B41F4B9
:1020100020910701309108013093E6032093E503F6
:1020200020910501309106012115310541F42DB7AC
:102030003EB74091090150910A01241B350BE091F4
:10204000E503F091E603E217F307A0F42E1B3F0B24
:102050002817390778F0AC014E5F5F4F241735071A
:1020600048F04E0F5F1F5093E6034093E5038193C2
:1020700091939FCFF0E0E0E09CCFCF93DF93009768
:10208000E9F0FC01329713821282A091E703B0912C
:10209000E803ED0130E020E01097A1F420813181C8
:1020A000820F931F2091E5033091E603281739072B
:1020B00009F061C0F093E603E093E503DF91CF916F
:1020C0000895EA01CE17DF07E8F54A815B819E019A
:1020D00041155105B1F7E901FB83EA834991599113
:1020E000C40FD51FEC17FD0761F480819181029622
:1020F000840F951FE90199838883828193819B8353
:102100008A83F0E0E0E012968D919C9113970097FE
:10211000B9F52D913C911197CD010296820F931F35
:102120002091E5033091E6032817390739F63097F7
:1021300051F51092E8031092E703B093E603A093E1
:10214000E503BCCFD383C28340815181840F951FA7
:10215000C817D90761F44E5F5F4F88819981480F96
:10216000591F518340838A819B81938382832115E8
:10217000310509F0B0CFF093E803E093E7039ECF79
:10218000FD01DC01C0CF13821282D7CFB0E0A0E006
:10219000ECECF0E10C94BE0E8C01009751F4CB01F5
:1021A0000E94A10F8C01C801CDB7DEB7E0E10C940D
:1021B000DA0EFC01E60FF71F9C0122503109E217ED
:1021C000F30708F49DC0D901CD91DC911197C61792
:1021D000D70798F0C530D10530F3CE0104978617A4
:1021E000970708F3C61BD70B2297C193D1936D9322
:1021F0007C93CF010E943D10D6CF5B01AC1ABD0A83
:102200004C018C0E9D1EA091E703B091E803512C68
:10221000412CF12CE12C109731F58091E503909140
:10222000E6038815990509F05CC04616570608F0C4
:1022300058C08091050190910601009741F48DB737
:102240009EB74091090150910A01841B950BE81734
:10225000F90708F055C0F093E603E093E503F901B0
:1022600071836083A0CF8D919C91119712966C9091
:10227000129713967C901397A815B90559F56C0120
:1022800042E0C40ED11CCA14DB0420F1AC014A198F
:102290005B09DA011296159780F06282738251838E
:1022A0004083D9016D937C93E114F10471F0D7015F
:1022B0001396FC93EE93129776CF22968C0F9D1F68
:1022C000F90191838083F301EFCFF093E803E0936A
:1022D000E70369CF4816590608F42C017D01D301A4
:1022E0009ACFCB010E94A10F7C01009749F0AE016B
:1022F000B8010E948311C8010E943D10870153CF8D
:1023000010E000E050CFFB01DC0102C001900D9213
:1023100041505040D8F70895FB01DC0101900D9227
:102320000020E1F7089510E0C2E9D0E004C0FE010A
:102330000E949B0F2196C339D107C9F7F894FFCFAC
:102340001F031F03070000E9038000000000005F77
:1023500001CE00FC00AC012C010B011E01000000AD
:1023600000AB05EC03E5032D2D2D2D2D2D00534540
:1023700052002072007241002D202020202D0000EC
:107E0000112484B714BE81FFF0D085E080938100F7
:107E100082E08093C00088E18093C10086E0809377
:107E2000C20080E18093C4008EE0C9D0259A86E02C
:107E300020E33CEF91E0309385002093840096BBD3
:107E4000B09BFECF1D9AA8958150A9F7CC24DD24C4
:107E500088248394B5E0AB2EA1E19A2EF3E0BF2EE7
:107E6000A2D0813461F49FD0082FAFD0023811F036
:107E7000013811F484E001C083E08DD089C08234E0
:107E800011F484E103C0853419F485E0A6D080C0E4
:107E9000853579F488D0E82EFF2485D0082F10E0AE
:107EA000102F00270E291F29000F111F8ED06801E7
:107EB0006FC0863521F484E090D080E0DECF843638
:107EC00009F040C070D06FD0082F6DD080E0C81688
:107ED00080E7D80618F4F601B7BEE895C0E0D1E017
:107EE00062D089930C17E1F7F0E0CF16F0E7DF06D8
:107EF00018F0F601B7BEE89568D007B600FCFDCFD4
:107F0000A601A0E0B1E02C9130E011968C91119780
:107F100090E0982F8827822B932B1296FA010C0160
:107F200087BEE89511244E5F5F4FF1E0A038BF0790
:107F300051F7F601A7BEE89507B600FCFDCF97BE46
:107F4000E89526C08437B1F42ED02DD0F82E2BD052
:107F50003CD0F601EF2C8F010F5F1F4F84911BD097
:107F6000EA94F801C1F70894C11CD11CFA94CF0C13
:107F7000D11C0EC0853739F428D08EE10CD085E9AC
:107F80000AD08FE07ACF813511F488E018D01DD067
:107F900080E101D065CF982F8091C00085FFFCCF94
:107FA0009093C60008958091C00087FFFCCF809118
:107FB000C00084FD01C0A8958091C6000895E0E648
:107FC000F0E098E1908380830895EDDF803219F02E
:107FD00088E0F5DFFFCF84E1DECF1F93182FE3DFCA
:107FE0001150E9F7F2DF1F91089580E0E8DFEE27F6
:047FF000FF270994CA
:027FFE00040479
:0400000300007E007B
:00000001FF