:100000000C9462000C948A000C948A000C948A0070
:100010000C948A000C948A000C948A000C948A0038
:100020000C948A000C948A000C948A000C948A0028
:100030000C948A000C948A000C948A000C948A0018
:100040000C943A060C948A000C9409060C94E3056F
:100050000C948A000C948A000C948A000C948A00F8
:100060000C9484060C948A000000000024002700F1
:100070002A0000000000250028002B0000000000DE
:1000800023002600290004040404040404040202DA
:100090000202020203030303030301020408102007
:1000A0004080010204081020010204081020000012
:1000B0000008000201000003040700000000000027
:1000C0000000C80711241FBECFEFD8E0DEBFCDBFB0
:1000D00011E0A0E0B1E0EEE5F4E102C005900D9280
:1000E000A433B107D9F724E0A4E3B1E001C01D9225
:1000F000A03EB207E1F710E0C2E6D0E004C02197CD
:10010000FE010E940209C136D107C9F70E946F089B
:100110000C942D0A0C940000AF92BF92CF92DF9204
:10012000EF92FF920F931F93CF93DF936C017B01AC
:100130008B01040F151FEB015E01AE18BF08C0173D
:10014000D10759F06991D601ED91FC910190F081B0
:10015000E02DC6010995892B79F7C501DF91CF9173
:100160001F910F91FF90EF90DF90CF90BF90AF90D5
:100170000895FC01538D448D252F30E0842F90E0AD
:10018000821B930B541710F0CF9608950197089592
:10019000FC01918D828D981759F0A28DAE0FBF2F63
:1001A000B11D5D968C91928D9F5F928F90E0089526
:1001B0008FEF9FEF0895FC01918D828D981731F09C
:1001C000828DE80FF11D858D90E008958FEF9FEFF0
:1001D0000895FC01918D828D981B892F90E00895E0
:1001E000FC01A48DA80FB92FB11DA35EBE4F2C91A9
:1001F000848D90E001968F739927848FA689B789A3
:100200002C93A089B1898C91837080648C93938D99
:10021000848D981306C00288F389E02D80818F7D3C
:1002200080830895EF92FF920F931F93CF93DF93F4
:10023000EC0181E0888F9B8D8C8D98131AC0E88922
:10024000F989808185FF15C09FB7F894EE89FF89F1
:100250006083E889F98980818370806480839FBF8F
:1002600081E090E0DF91CF911F910F91FF90EF908F
:100270000895F62E0B8D10E00F5F1F4F0F7311279F
:10028000E02E8C8D8E110CC00FB607FCFACFE889DA
:10029000F989808185FFF5CFCE010E94F000F1CF72
:1002A000EB8DEC0FFD2FF11DE35EFE4FF0829FB74B
:1002B000F8940B8FEA89FB8980818062CFCFCF933E
:1002C000DF93EC01888D8823B9F0AA89BB89E8897E
:1002D000F9898C9185FD03C0808186FD0DC00FB624
:1002E00007FCF7CF8C9185FFF2CF808185FFEDCFA2
:1002F000CE010E94F000E9CFDF91CF91089580EE0A
:1003000091E00E94E90021E0892B09F420E0822F8E
:10031000089580E090E0892B29F00E947F018111EF
:100320000C9400000895E091DC01F091DD0130971C
:1003300029F01092D9011092D80109940895CF9311
:10034000DF93AC01E091DE01F091DF013097F1F035
:100350009091DB018091DA019817C0F090E0292F8D
:1003600030E02617370754F4D901A55CBE4F240F9F
:10037000351FE90128812C939F5FF1CF1092DB019B
:100380006093DA01CB01DF91CF910994DF91CF9196
:100390000895833081F028F4813099F08230A9F0FB
:1003A00008958730A9F08830C9F08430B1F4809185
:1003B00080008F7D03C0809180008F7780938000C4
:1003C000089584B58F7784BD089584B58F7DFBCF64
:1003D0008091B0008F778093B00008958091B00035
:1003E0008F7DF9CFCF93DF93282F30E0F901E255CD
:1003F000FF4F8491F901E656FF4FD491F901EA5776
:10040000FF4FC491CC23A1F081110E94C901EC2FB0
:10041000F0E0EE0FFF1FE458FF4FA591B491EC916F
:10042000ED2381E090E009F480E0DF91CF91089521
:1004300080E090E0FACFCF93DF93FC01C281D381BB
:1004400085E00E94F201892B41F480913501C93E7B
:10045000D34030F0826080933501DF91CF910895D1
:100460008860F9CFCF93DF93FC01C281D38185E00F
:100470000E94F201892B41F480913501C93ED3409D
:1004800030F0816080933501DF91CF9108958061D4
:10049000F9CF1F93CF93DF93282F30E0F901E25576
:1004A000FF4F8491F901E656FF4FD491F901EA57C5
:1004B000FF4FC491CC23A9F0162F81110E94C901CE
:1004C000EC2FF0E0EE0FFF1FEE58FF4FA591B49117
:1004D0008FB7F894EC91111108C0D095DE23DC930E
:1004E0008FBFDF91CF911F910895DE2BF8CF60E091
:1004F00081E00C944902CF93DF9390E0FC01E65633
:10050000FF4F24918A579F4FFC0184918823C9F0A3
:1005100090E0880F991FFC01E859FF4FA591B49115
:10052000FC01EE58FF4FC591D49161110DC09FB7EA
:10053000F8948C91209582238C938881282328839A
:100540009FBFDF91CF910895623051F49FB7F89427
:100550003C91822F809583238C93E8812E2BEFCFC3
:100560008FB7F894EC912E2B2C938FBFEACF8E503F
:10057000806480937C0080917A00806480937A000C
:1005800080917A0086FDFCCF80917800909179006F
:1005900008952FB7F8946091D0017091D1018091A6
:1005A000D2019091D3012FBF0895DC01ED91FC9110
:1005B0000190F081E02D0994DC011296ED91FC91FF
:1005C000309729F00190F081E02DCB010994089536
:1005D00020918101260F3327331F21323105ECF49E
:1005E0002091A501FC0190E080E0243069F082E0D8
:1005F0000895A09181012191AC014F595E4FA40F44
:10060000B52FB11D2C930196861798F38091810127
:10061000680F6093810180E0089581E00895109251
:10062000A50181E08093A7011092A60161E082E11B
:100630000E94490261E083E10E944902E9EBF0E097
:1006400080818E7F808380818D7F808388E480930A
:10065000B80085E48093BC0008950895E091DB0123
:100660008091DA01E81730F4F0E0E55CFE4F80811C
:1006700090E008958FEF9FEF08959091DB018091B6
:10068000DA012FEF3FEF981748F4E92FF0E0E55C2F
:10069000FE4F208130E09F5F9093DB01C9010895F8
:1006A0008091DA019091DB01891B990B0895CF931A
:1006B000DF93CB01EA01642F0E94E802CE01DF91B3
:1006C000CF910895CF93DF931F92CDB7DEB76983A3
:1006D00061E0CE0101960E94E80281E090E00F9077
:1006E000DF91CF91089590E080E008958FE00E941F
:1006F000B7028B3892403CF08FE00E94B70221E0B5
:10070000843893400CF020E0822F08958FE00E94FF
:10071000B70221E0893E93400CF420E0822F089537
:100720008EE00E94B7028B3892403CF08EE00E942F
:10073000B70221E0843893400CF020E0822F089526
:100740008EE00E94B70221E0893E93400CF420E045
:10075000822F089580E10E94B7028B3892403CF0CE
:1007600080E10E94B70221E0843893400CF020E041
:10077000822F089580E10E94B70221E0893E9340D4
:100780000CF420E0822F089581E10E94B7028B389B
:1007900092403CF081E10E94B70221E0843893400E
:1007A0000CF020E0822F089581E10E94B70221E041
:1007B000893E93400CF420E0822F089585E00E944A
:1007C000F2019C0191E02115310509F490E080913E
:1007D0003401891307C083E00E94F201892B41F4A0
:1007E00020E00CC090933401232BA9F321E006C034
:1007F00084E00E94F20121E0892B91F3822F089579
:1008000083E00E94F201892B31F484E00E94F2011E
:1008100021E0892B09F420E0822F089583E00E94D3
:10082000F201892B31F084E00E94F20121E0892B52
:1008300009F020E0822F08950F931F93CF93DF9349
:10084000EC010E94C9020E851F8528893989601B29
:10085000710B820B930B0A851B852C853D856017D8
:1008600071078207930708F457C08A898F7C8A8BA7
:100870000E94C9026E877F87888B998BE885F985EE
:1008800009959A89882309F440C091609A8B8A89D6
:1008900080FD3DC083FF3BC0857F84608A8B0E94C2
:1008A000C9022F89388D621B730B7E8B6D8BBE0145
:1008B0006D5E7F4FCE010E94DC028A89897089308B
:1008C00041F40E94C9022F89388D621B730B7E8B05
:1008D0006D8B8A8980FF1EC083FD1CC08A608A8B55
:1008E0000E94C9026F8B788F898F9A8F6D8F7E8F50
:1008F0008F8F98A3BE01655E7F4FCE010496DF9176
:10090000CF911F910F910C94DC029E7FBFCF8B7F04
:100910008A8BD3CF8D7F8A8BDF91CF911F910F91DF
:100920000895CF93DF93EC010E941C048A898170A3
:10093000DF91CF9108950F931F93CF93DF938C0195
:10094000EB0182E090E00E940809F8019383828322
:10095000FC01D183C083DF91CF911F910F91089546
:10096000CF93DF9385ED8093BC0080915D019091E2
:100970005E01A0915F01B09160010796A11DB11DBC
:1009800023E0B695A795979587952A95D1F720915D
:10099000BC0024FD03C01092A50136C040915D014A
:1009A00050915E0160915F0170916001452B462B73
:1009B000472B69F30097A105B10541F02AE22A957A
:1009C000F1F700C00197A109B109E1CF80915C0165
:1009D00091E090935B018823B9F0C091B800D09169
:1009E000BA008091BC008A7B8093BC0060E082E109
:1009F0000E94490260E083E10E9449020E940F03C5
:100A0000D093BA00C093B800DF91CF91089560E011
:100A100080E00E94490287E894E00E941C0486E678
:100A200094E00E941C0484E10E94B7029093380174
:100A30008093370185E10E94B70290933A01809339
:100A4000390185E494E00E94910490913501882356
:100A500009F4A5C09460909335018DE00E94F201E5
:100A600020913501892B09F09CC02062209335012B
:100A700081E10E94B70284E294E00E949104909187
:100A80003501882309F48FC090649093350183E089
:100A900094E00E94910490913501882309F485C067
:100AA00090689093350182EE93E00E9491049091BA
:100AB0003601882309F47BC091609093360181EC64
:100AC00093E00E94910490913601882309F471C04B
:100AD00092609093360180EA93E00E949104909195
:100AE0003601882309F467C09460909336018FE73C
:100AF00093E00E94910490913601882309F45DC02F
:100B00009860909336018EE593E00E949104909155
:100B10003601882309F453C09061909336018DE328
:100B200093E00E94910490913601882309F449C012
:100B3000906290933601E6EBF4E08AED94E0119236
:100B40008E179F07E1F781E08093B60486E08093DB
:100B5000B70421E030E03093B9042093B804E5E312
:100B6000F1E0AAEBB4E001900D928A95E1F78DE0F7
:100B70008093C0048AE08093C1048091B404909172
:100B8000B504DC01ED91FC910280F381E02D4CE095
:100B900050E066EB74E009951092350108959B7F53
:100BA0005ACF2F7D63CF9F7B70CF9F777ACF9E7F69
:100BB00084CF9D7F8ECF9B7F98CF977FA2CF9F7E44
:100BC000ACCF9F7DB6CF1F920F920FB60F9211241C
:100BD0002F933F934F935F936F937F938F939F9345
:100BE000AF93BF93EF93FF9380EE91E00E94F000EC
:100BF000FF91EF91BF91AF919F918F917F916F91F5
:100C00005F914F913F912F910F900FBE0F901F90CA
:100C100018951F920F920FB60F9211242F938F9356
:100C20009F93EF93FF93E091F001F091F1018081A8
:100C3000E091F601F091F70182FD1AC09081809158
:100C4000F9018F5F2091FA01821741F0E091F901DB
:100C5000F0E0E052FE4F958F8093F901FF91EF9104
:100C60009F918F912F910F900FBE0F901F9018950D
:100C70008081F4CF1F920F920FB60F9211242F9301
:100C80003F938F939F93AF93BF938091D0019091A7
:100C9000D101A091D201B091D3013091CF0123E0D5
:100CA000230F2D3758F50196A11DB11D2093CF01BB
:100CB0008093D0019093D101A093D201B093D3013E
:100CC0008091CB019091CC01A091CD01B091CE014A
:100CD0000196A11DB11D8093CB019093CC01A093EF
:100CE000CD01B093CE01BF91AF919F918F913F9174
:100CF0002F910F900FBE0F901F90189526E8230F8D
:100D00000296A11DB11DD2CF1F920F920FB60F9266
:100D100011242F933F934F935F936F937F938F9300
:100D20009F93AF93BF93EF93FF938091B900887F18
:100D3000803609F44AC0F0F5883209F4A7C018F5E6
:100D4000803109F49BC0B8F4882309F4F9C08830D5
:100D500009F494C0FF91EF91BF91AF919F918F9152
:100D60007F916F915F914F913F912F910F900FBEA7
:100D70000F901F901895883109F488C0803251F780
:100D80008093A40114C0803409F49DC040F48033E2
:100D9000B9F38833F9F68093A40185ECB0C08035AF
:100DA00009F485C0883509F496C0883499F60E9404
:100DB000B004D0CF883909F48CC038F5883729F0D1
:100DC00050F4883611F0803729F683E08093A5012E
:100DD0001092A30157C0883809F47BC0803919F0FC
:100DE000803809F0B7CF8091A301803208F071C03C
:100DF000E091A30181E08E0F8093A3018091BB005D
:100E0000F0E0ED57FE4F80833DC0803B39F0E0F4C9
:100E1000803A09F479C0883A09F09CCF84E0809345
:100E2000A5011092820110928101E091D601F0910A
:100E3000D70109958091810181110FC081E08093D4
:100E400081011092610109C0803C09F4A6CF883C61
:100E500009F4A3CF883B09F07DCFE091820181E0C6
:100E60008E0F80938201F0E0EF59FE4F80818093D6
:100E7000BB00909182018091810129C08091CA01BB
:100E80008093BB0085EC8093BC0064CF9091C90136
:100E90008091C801981758F5E091C90181E08E0F43
:100EA0008093C901F0E0E855FE4F8081E9CFE091E1
:100EB000C90181E08E0F8093C9018091BB00F0E0F1
:100EC000E855FE4F80839091C9018091C801981721
:100ED000C8F285E8D8CFE091C90181E08E0F8093F8
:100EE000C9018091BB00F0E0E855FE4F80838091FE
:100EF000A70181115CCF81E08093A60184EA8093F1
:100F0000BC001092A50126CF85EC8093BC00109206
:100F1000A5018091A301803230F4E091A301F0E0BB
:100F2000ED57FE4F10826091A30170E0E091D40173
:100F3000F091D50183E891E009951092A3010ACFC1
:100F40001092A40134CFFC018AE091E09183808368
:100F50001382128295838483178216827187608739
:100F6000228733874487558716861786108A118A09
:100F7000128A168A158A178A108E118E128E148A7A
:100F8000138A158E168E178E10A2148E138E089546
:100F9000E0EEF1E01382128288EE93E0A0E0B0E090
:100FA00084839583A683B78324E131E03183208352
:100FB00025EC30E03587248724EC30E0378726871E
:100FC00020EC30E0318B208B21EC30E0338B228B16
:100FD00022EC30E0358B248B26EC30E0378B268BEF
:100FE000118E128E138E148EE8EAF4E013821282B0
:100FF00084839583A683B78386E291E0918380837F
:10100000F093B504E093B40420E030E0A9016EE071
:1010100074E087E894E00E94A30720E030E0A90193
:1010200060E074E086E694E00E94A30720E030E0F0
:10103000A9016EED73E085E494E00E94A3072FE020
:1010400030E040E050E064ED73E084E294E00E9420
:10105000A3072FE030E040E050E064EC73E083E071
:1010600094E00E94A3072FE030E040E050E06AEBFC
:1010700073E082EE93E00E94A3072FE030E040E0AF
:1010800050E06AEA73E081EC93E00E94A3072FE04E
:1010900030E040E050E060EA73E080EA93E00E94D4
:1010A000A3072FE030E040E050E060E973E08FE715
:1010B00093E00E94A3072FE030E040E050E066E8B4
:1010C00073E08EE593E00E94A3072FE030E040E05C
:1010D00050E066E773E08DE393E00C94A307789407
:1010E00084B5826084BD84B5816084BD85B582602D
:1010F00085BD85B5816085BD80916E0081608093DE
:101100006E00109281008091810082608093810046
:101110008091810081608093810080918000816056
:10112000809380008091B10084608093B1008091B1
:10113000B00081608093B00080917A0084608093D9
:101140007A0080917A00826080937A0080917A00A0
:10115000816080937A0080917A00806880937A0021
:101160001092C1006BE172E087E894E00E94D50222
:1011700062E372E086E694E00E94D50260E081E1DD
:101180000E947B0262E08DE00E947B021092DB01F4
:101190001092DA011092D9011092D8010E940F0327
:1011A00083E991E09093D7018093D6018FE991E094
:1011B0009093D5018093D40180E48093BA0087E0B6
:1011C00095E09093DD018093DC0187E792E09093B6
:1011D000DF018093DE0162E085E00E947B0260E037
:1011E00083E00E947B0260E084E00E947B02C0E01A
:1011F000D0E02097F1F30E947F018823D1F30E9471
:101200000000F7CFEE0FFF1F0590F491E02D099439
:101210000F931F93CF93DF938230910510F482E0F8
:1012200090E0E091DE04F091DF0430E020E0B0E0F7
:10123000A0E0309799F42115310509F44AC0281B24
:10124000390B24303105D8F58A819B8161157105F0
:1012500089F1FB0193838283FE0111C0408151819A
:101260000281138148175907E0F04817590799F48C
:10127000109761F012960C93129713961C93329666
:10128000CF01DF91CF911F910F9108950093DE045C
:101290001093DF04F4CF2115310551F042175307A5
:1012A00038F0A901DB019A01BD01DF01F801C1CFCE
:1012B000EF01F9CF9093DF048093DE04CDCFFE01E0
:1012C000E20FF31F819391932250310939832883D0
:1012D000D7CF2091DC043091DD04232B41F4209101
:1012E0000201309103013093DD042093DC0420914E
:1012F0000001309101012115310541F42DB73EB7B0
:101300004091040150910501241B350BE091DC0450
:10131000F091DD04E217F307A0F42E1B3F0B281712
:10132000390778F0AC014E5F5F4F2417350748F05E
:101330004E0F5F1F5093DD044093DC048193919323
:101340009FCFF0E0E0E09CCFCF93DF930097E9F0F0
:10135000FC01329713821282A091DE04B091DF0467
:10136000ED0130E020E01097A1F420813181820F5F
:10137000931F2091DC043091DD042817390709F010
:1013800061C0F093DD04E093DC04DF91CF91089518
:10139000EA01CE17DF07E8F54A815B819E0141151E
:1013A0005105B1F7E901FB83EA8349915991C40FD3
:1013B000D51FEC17FD0761F4808191810296840F9F
:1013C000951FE90199838883828193819B838A8316
:1013D000F0E0E0E012968D919C9113970097B9F59B
:1013E0002D913C911197CD010296820F931F209170
:1013F000DC043091DD042817390739F6309751F5B0
:101400001092DF041092DE04B093DD04A093DC049C
:10141000BCCFD383C28340815181840F951FC817ED
:10142000D90761F44E5F5F4F88819981480F591F3A
:10143000518340838A819B81938382832115310567
:1014400009F0B0CFF093DF04E093DE049ECFFD01FE
:0E145000DC01C0CF13821282D7CFF894FFCFF9
:10145E000000E0048000000000009B04DC02D502C6
:10146E000000000012018C00B9005F01E900C80005
:10147E00DB00000000006203570373032D035003CB
:04148E003D032E03E9
:107E0000112484B714BE81FFF0D085E080938100F7
:107E100082E08093C00088E18093C10086E0809377
:107E2000C20080E18093C4008EE0C9D0259A86E02C
:107E300020E33CEF91E0309385002093840096BBD3
:107E4000B09BFECF1D9AA8958150A9F7CC24DD24C4
:107E500088248394B5E0AB2EA1E19A2EF3E0BF2EE7
:107E6000A2D0813461F49FD0082FAFD0023811F036
:107E7000013811F484E001C083E08DD089C08234E0
:107E800011F484E103C0853419F485E0A6D080C0E4
:107E9000853579F488D0E82EFF2485D0082F10E0AE
:107EA000102F00270E291F29000F111F8ED06801E7
:107EB0006FC0863521F484E090D080E0DECF843638
:107EC00009F040C070D06FD0082F6DD080E0C81688
:107ED00080E7D80618F4F601B7BEE895C0E0D1E017
:107EE00062D089930C17E1F7F0E0CF16F0E7DF06D8
:107EF00018F0F601B7BEE89568D007B600FCFDCFD4
:107F0000A601A0E0B1E02C9130E011968C91119780
:107F100090E0982F8827822B932B1296FA010C0160
:107F200087BEE89511244E5F5F4FF1E0A038BF0790
:107F300051F7F601A7BEE89507B600FCFDCF97BE46
:107F4000E89526C08437B1F42ED02DD0F82E2BD052
:107F50003CD0F601EF2C8F010F5F1F4F84911BD097
:107F6000EA94F801C1F70894C11CD11CFA94CF0C13
:107F7000D11C0EC0853739F428D08EE10CD085E9AC
:107F80000AD08FE07ACF813511F488E018D01DD067
:107F900080E101D065CF982F8091C00085FFFCCF94
:107FA0009093C60008958091C00087FFFCCF809118
:107FB000C00084FD01C0A8958091C6000895E0E648
:107FC000F0E098E1908380830895EDDF803219F02E
:107FD00088E0F5DFFFCF84E1DECF1F93182FE3DFCA
:107FE0001150E9F7F2DF1F91089580E0E8DFEE27F6
:047FF000FF270994CA
:027FFE00040479
:0400000300007E007B
:00000001FF