:100000000C9459010C9481010C9481010C94810190
:100010000C9481010C9481010C9481010C94810158
:100020000C9481010C9481010C94A50C0C94140D7A
:100030000C9481010C9481010C9481010C94810138
:100040000C9481010C9481010C9481010C94810128
:100050000C9481010C9481010C9481010C94460F45
:100060000C9481010C9481010C9481010C94810108
:100070000C9481010C9481010C9481010C948101F8
:100080000C9481010C9481010C9481010C948101E8
:100090000C94900F0C9481010C9481010C948101BB
:1000A0000C9481010C9481010C94810100407A1020
:1000B000F35A00A0724E18090010A5D4E80000E819
:1000C0007648170000E40B54020000CA9A3B000077
:1000D00000E1F505000080969800000040420F0006
:1000E0000000A08601000000102700000000E803C7
:1000F000000000006400000000000A000000000092
:100100000100000000002C76D888DC674F0823DF50
:10011000C1DFAE59E1B1B796E5E3E453C63AE65123
:10012000997696E8E6C28426EB898C9B62ED407C4A
:100130006FFCEFBC9C9F40F2BAA56FA5F490055AE6
:100140002AF75C936B6CF9676DC11BFCE0E40D470B
:10015000FEF520E6B500D0ED902E0300943577052E
:100160000080841E080000204E0A000000C80C33E6
:100170003333330F986E12831141EF8D2114893B75
:10018000E65516CFFEE6DB18D1844B381BF77C1DF5
:10019000901DA4BBE424203284725E228100C9F148
:1001A00024ECA1E53D27070605040100080A0B0C15
:1001B0000D0900000000240027002A002D00300057
:1001C00000000000250028002B002E003100000058
:1001D00000002300260029002C002F000404040442
:1001E00004030405020202020403020202020606DC
:1001F00006060606040402020204040408020110B2
:10020000408040102040804080080204018040204F
:100210001002011080102040402000000002000960
:100220000F0000030401000C0000000000000000AB
:10023000000000000000000000080B0002020200A5
:10024000000904000001020200000524001001055D
:10025000240101010424020605240600010705818A
:100260000310004009040100020A00000007050213
:100270000240000007058302400000040309041245
:10028000010002EF02014041233680000101020318
:100290000141726475696E6F204C4C430041726479
:1002A00075696E6F204C656F6E6172646F00E2104D
:1002B0004F1811241FBECFEFDAE0DEBFCDBF11E033
:1002C000A0E0B1E0E6E7FDE302C005900D92AA3898
:1002D000B107D9F725E0AAE8B1E001C01D92AC341E
:1002E000B207E1F711E0C8E5D1E004C02197FE01B3
:1002F0000E949B1CC735D107C9F70E9498130C9424
:10030000AE1E0C940000CF92DF92EF92FF920F93FB
:100310001F93CF93DF93D901E8016A01F9014217D6
:10032000530714F06901FA01882309F440C0CB0196
:100330006C157D050CF4C6019F018E179F070CF408
:100340009C01A417B50734F4CF01821B930B9C01C9
:100350002C0D3D1D0D2C000CEE08FF08032E000C8B
:10036000440B550B2C193D094E095F09AEEFBFEF49
:100370000E94141C9F01FF0F440B550B2C193D09C3
:100380004E095F090E94F51BDA01C9018F5F9F4783
:10039000A109B1098883998382E090E0DF91CF9130
:1003A0001F910F91FF90EF90DF90CF90089590E014
:1003B00080E0F4CFFC018091A902882311F13FB7BE
:1003C000F89482E08093E9002091F200822F90E07F
:1003D0001816190614F481E090E0882339F0289863
:1003E00044E64093A8024091F1004083222339F073
:1003F0002091F200211103C02BE62093E8003FBFBB
:1004000008958FEF9FEF08954091A2025091A302AB
:100410002091A0023091A10242175307B4F49091A9
:10042000E8009570E1F39091E80092FD19C0809387
:10043000F1008091A2029091A30201968F739927F7
:10044000892B19F48EEF8093E8008091A20290919D
:10045000A30201969093A3028093A20281E00895E3
:1004600080E00895DF92EF92FF920F931F93CF9356
:10047000DF93D82E8A01EB017B01E40EF51ECE1529
:10048000DF0559F0D7FE12C0FE0184910E940402DC
:1004900021968111F4CF0FEF1FEFC801DF91CF91AB
:1004A0001F910F91FF90EF90DF9008958881EECF1C
:1004B0002FB7F89487708093E9009091E800892F16
:1004C000807295FF04C09091F20080E4891B2FBFD9
:1004D0000895615030F02091F100FC0120830196D5
:1004E000F8CF289884E68093A8020895AF92BF922F
:1004F000CF92DF92EF92FF920F931F93CF93DF93F0
:100500006C017B018B01040F151FEB015E01AE181E
:10051000BF08C017D10759F06991D601ED91FC9140
:100520000190F081E02DC6010995892B79F7C5016D
:10053000DF91CF911F910F91FF90EF90DF90CF90BF
:10054000BF90AF9008958091980281110DC082E014
:100550008093940284E08093950210929702109207
:10056000960281E08093980284E992E008950F93C7
:100570001F93CF93DF931F92CDB7DEB782E08983BD
:1005800042E450E069E372E080E80E9432020E9497
:10059000A302DC0112960D911C910115110589F041
:1005A000D801ED91FC910280F381E02DBE016F5FD7
:1005B0007F4FC801099597FD04C0F801008511859A
:1005C000ECCF89810F90DF91CF911F910F9108950A
:1005D00008950895CF93DF931F92CDB7DEB7698357
:1005E000DC01ED91FC910280F381E02D41E050E0CF
:1005F000BE016F5F7F4F09950F90DF91CF910895F6
:1006000083E08093E9008091F200882319F08AE367
:100610008093E800089583E00E94580290E00895D6
:10062000CF93DF931F92CDB7DEB7FC01848595850C
:1006300097FD08C02FEF3FEF358724870F90DF919C
:10064000CF910895CE0101960E94DA01019719F425
:10065000898190E0F3CF8FEF9FEFF0CF0F931F933F
:10066000CF93DF931F92CDB7DEB78C01FC01848559
:10067000958597FF0BC0CE0101960E94DA01019784
:1006800071F4898190E0F80195878487F801848569
:1006900095850F90DF91CF911F910F9108958FEF66
:1006A0009FEFF1CFFC018485958597FD0BC09FB727
:1006B000F89482E08093E9008091F2009FBF90E07F
:1006C000019608959FB7F89482E08093E9008091A5
:1006D000F2009FBF90E0089581508F3008F047C02E
:1006E000E82FF0E0EA58FC4F0C949B1C930397030F
:1006F00085038B038F03B703B703B7039A03A003E4
:10070000A403A803AE03B703B203809180008F77E0
:10071000809380000895809180008F7DF9CF809133
:100720008000877FF5CF84B58F7784BD089584B529
:100730008F7DFBCF809190008F77809390000895FC
:10074000809190008F7DF9CF80919000877FF5CFC9
:100750008091C0008F778093C00008958091C00081
:100760008F7DF9CF8091C200877F8093C20008956A
:10077000CF93DF93282F30E0F901E65EFD4F84919F
:10078000F901E550FE4FD491F901E452FE4FC491B6
:10079000CC23A1F081110E946C03EC2FF0E0EE0F4E
:1007A000FF1FE253FE4FA591B491EC91ED2381E040
:1007B00090E009F480E0DF91CF91089580E090E02F
:1007C000FACF1F93CF93DF93282F30E0F901E65E35
:1007D000FD4F8491F901E550FE4FD491F901E452A7
:1007E000FE4FC491CC23A9F0162F81110E946C03F7
:1007F000EC2FF0E0EE0FFF1FE054FE4FA591B491F7
:100800008FB7F894EC91111108C0D095DE23DC93DA
:100810008FBFDF91CF911F910895DE2BF8CFCF933B
:10082000DF9390E0FC01E550FE4F249184529E4FEF
:10083000FC0184918823C9F090E0880F991FFC0186
:10084000EE54FE4FA591B491FC01E054FE4FC591CA
:10085000D49161110DC09FB7F8948C91209582239B
:100860008C938881282328839FBFDF91CF9108959F
:10087000623051F49FB7F8943C91822F8095832386
:100880008C93E8812E2BEFCF8FB7F894EC912E2B21
:100890002C938FBFEACF8251E82FF0E0EA55FE4F4C
:1008A000E49190917B008E2F880F880F80729F7D3E
:1008B000892B80937B00E770E064E0937C0080915B
:1008C0007A00806480937A0080917A0086FDFCCF64
:1008D000809178009091790008953FB7F8948091C5
:1008E000EC019091ED01A091EE01B091EF0126B5E0
:1008F000A89B05C02F3F19F00196A11DB11D3FBF58
:10090000BA2FA92F982F8827BC01CD01620F711D26
:10091000811D911D42E0660F771F881F991F4A9520
:10092000D1F70895CF92DF92EF92FF920E946D046B
:100930006B017C010E946D046C197D098E099F0971
:10094000683E734081059105A8F3FF90EF90DF901A
:10095000CF9008957F928F929F92AF92BF92CF9245
:10096000DF92EF92FF920F931F93CF93DF93C82EE6
:100970008B017A018091A902811110C08FEF9FEF46
:10098000DF91CF911F910F91FF90EF90DF90CF906B
:10099000BF90AF909F908F907F9008958091A60216
:1009A00080FF05C08091E00082608093E000CE2D42
:1009B000DF2DD12C8AEFB82E8C2D8770982E8C2DA0
:1009C0008072882E8C2D8074782E9AE3A92E209721
:1009D00019F4DD2009F44EC08C2D0E9458028111BB
:1009E00006C0BA94BB2051F20E949204F0CF8C173B
:1009F0001D0611F00CF08C2F9FB7F8949092E9002F
:100A00002091E80025FD02C09FBFE1CF282F30E0F4
:100A1000C21BD30B882029F08150A0F01092F10066
:100A2000FBCFF801C7FC0AC0815050F041914093C0
:100A3000F100FACF44914093F10031968150D0F704
:100A4000020F131FDD2021F0A092E800D12CDCCF93
:100A50008091E80085FD07C0A092E800DD24D394D2
:100A6000209791F2F3CF209779F6772069F2A09240
:100A7000E800CACF5D9884E68093A702C70180CFC3
:100A8000CF93DF93EC0180911201882331F083E052
:100A90000E94AA041816190634F081E090E09B83A6
:100AA0008A8380E090E0DF91CF9108952FB7F8948A
:100AB0006091E8017091E9018091EA019091EB0168
:100AC0002FBF0895DC01FB0112962C9112978481AF
:100AD00095812817190641F491818081813A31F47A
:100AE0009D7F81E0913009F080E008958132E1F747
:100AF0009B3029F482811F968C9381E008959A306F
:100B000099F7828150968C93F8CFDC01FB0188E441
:100B1000808389E4818384E482831D969C911D9760
:100B20009F709F5B93831D968D919C9124E0969579
:100B300087952A95E1F78F708F5B848385E0089510
:100B4000EF92FF920F931F93CF93DF93FB012081CE
:100B5000213889F52381223271F5DC0112964C91FE
:100B6000248135814217130631F58C01FC01C385C0
:100B7000D485F12CE12C209791F04C815D816A8124
:100B80007B818E81811180E80E9432028F3F98071D
:100B900059F0E80EF91E0990D881C02DECCF81E004
:100BA000D8011F968C93C701DF91CF911F910F91B0
:100BB000FF90EF90089590E080E0F6CFCF93DF9321
:100BC000CDB7DEB769970FB6F894DEBF0FBECDBFC5
:100BD000FC01DB018C918F5F8C939E012D5F3F4F59
:100BE0008DE0D9011D928A95E9F729E0298384E0F7
:100BF0008A8391E09D8383E08E832A8721E22B877D
:100C00009C879D879F8722E2288B27E02B8B25E0FE
:100C10002C8B8E8B20E430E0388F2F8B998F828144
:100C20008B8395858685998B8A8B838180688D8B54
:100C300049E150E0BE016F5F7F4F80E00E943202C9
:100C400069960FB6F894DEBF0FBECDBFDF91CF918E
:100C50000895CF93DF938091DF01811167C081E018
:100C60008093D2018093D30128ED31E03093D501F8
:100C70002093D4011092D7011092D6012DE131E0DA
:100C80003093CF012093CE011092DA011092D90156
:100C90001092DC011092DB018093DD018093DE0174
:100CA00081EC8093D8010E94A302FC018181909184
:100CB000D201482F490F5527551F483051059CF543
:100CC000A281B381109709F52EEC31E033832283A2
:100CD00020812093D0018093D1018091D301820F94
:100CE00080832091D401A22FB091D5018A2F821B3D
:100CF0008917C8F481813D91C82FD0E0C050DF4FE3
:100D000038838F5F8183F2CFD90118962D913C9162
:100D1000199721153105C1F72EEC31E019963C9356
:100D20002E931897D5CF81E08093DF018EEC91E070
:100D3000DF91CF910895DC01ED91FC910190F0815C
:100D4000E02D0994DC011296ED91FC91309729F089
:100D50000190F081E02DCB01099408952091AB0121
:100D6000260F3327331F21323105ECF42091D002B6
:100D7000FC0190E080E0243069F082E00895A091C9
:100D8000AB012191AC0145575E4FA40FB52FB11DAA
:100D90002C930196861798F38091AB01680F6093AE
:100DA000AB0180E0089581E008951092D00281E0C7
:100DB0008093CF021092AA0261E082E00E94E103D8
:100DC00061E083E00E94E103E9EBF0E080818E7F47
:100DD000808380818D7F808388E48093B80085E460
:100DE0008093BC000895CF93DF9391E090938A01A4
:100DF0008823B9F0C091B800D091BA008091BC00AE
:100E00008A7B8093BC0060E082E00E94E10360E0A6
:100E100083E00E94E1030E94D506D093BA00C093FC
:100E2000B800DF91CF9108958F929F92AF92BF92B9
:100E3000CF92DF92EF92FF920F931F93CF93DF93A6
:100E4000D091F902D13208F0D7C0182FC091F80222
:100E50000E946D046B017C018091D00281116BC0F6
:100E600082E08093D0021093CF028FEF8093CE0266
:100E70001092CD02D093CC02A8EDB2E0ECEAF2E001
:100E800080E0D81391C01092AB028091AB02CC0FDE
:100E9000C82BC093AB028091AA02813009F088C0B0
:100EA0001092AA020E946D046B017C018091AB023A
:100EB0008093BB008091D2029091D302A091D40282
:100EC000B091D502892B8A2B8B2BA1F00E946D0447
:100ED0000091D2021091D3022091D4023091D50218
:100EE0006C197D098E099F0906171707280739070E
:100EF00008F442C08091BC0083FDD8CF85EC80937C
:100F0000BC000E946D046B017C018091D002823094
:100F100009F450C08091CE028F3F09F46FC08091D8
:100F2000CE02803209F46CC08091CE02803309F485
:100F300069C084E026C08091D2029091D302A09132
:100F4000D402B091D502892B8A2B8B2B09F484CF44
:100F50000E946D048090D2029090D302A090D4029F
:100F6000B090D5026C197D098E099F0986169706E7
:100F7000A806B90608F070CF8091D1020E94F3064E
:100F800085E01092D7021092F9021092D602DF91FA
:100F9000CF911F910F91FF90EF90DF90CF90BF9076
:100FA000AF909F908F9008959D9191938F5F69CF9F
:100FB00085EEA5CF8091D2029091D302A091D40268
:100FC000B091D502892B8A2B8B2B09F49ECF0E94DE
:100FD0006D040091D2021091D3022091D40230917D
:100FE000D5026C197D098E099F0906171707280776
:100FF000390708F08ACFC0CF81E0C3CF80E0C1CFEE
:1010000082E0BFCF83E0BDCF0895E091630280917D
:101010006202E81730F4F0E0EC59FD4F808190E077
:1010200008958FEF9FEF089590916302809162027F
:101030002FEF3FEF981748F4E92FF0E0EC59FD4F00
:10104000208130E09F5F90936302C90108958091F1
:10105000620290916302891B990B0895CF92DF92EF
:10106000EF92FF920F931F93CF93DF937C01CB01FD
:101070008A012091D602222389F0EB016B01C40E74
:10108000D51ECC15DD0569F06991D701ED91FC9174
:101090000190F081E02DC7010995F3CF642F0E94E4
:1010A000AE06C801DF91CF911F910F91FF90EF9095
:1010B000DF90CF900895CF93DF931F92CDB7DEB727
:1010C00069832091D6022223F9F02091F90220327F
:1010D00058F021E030E0FC013383228390E080E08F
:1010E0000F90DF91CF9108958091D702E82FF0E023
:1010F000E852FD4F998190838F5F8093D702809350
:10110000F90281E090E0ECCF61E0CE0101960E940F
:10111000AE06F7CFFC01248131E03093D602209354
:10112000F8021092D7021092F9028385682B8CEA9C
:1011300094E00E945B0881E00C941407089590E00D
:1011400080E008957F928F929F92AF92BF92CF924C
:10115000DF92EF92FF920F931F93CF93DF9300D014
:1011600000D01F92CDB7DEB78C015C0182E0A80EE3
:10117000B11C6801AEE8CA0ED11CF5017A2CEB2C2B
:101180001192EC15FD05E1F78FE190E00197F1F781
:10119000F12C8FE1882E912CF80180819181DC0166
:1011A000ED91FC910084F185E02D0995892BA9F042
:1011B000BCE8FB1611F1F80180819181DC01ED9111
:1011C000FC910284F385E02D0995F50181935F017F
:1011D000F394C4010197F1F7DFCFF6E0FF1568F053
:1011E00081E090E0D6018D939C938F2D90E09A83BF
:1011F00089837B82EC821D822EC08F2D90E0F801C6
:10120000E80FF91F20812D3049F021812A3031F07B
:1012100082E090E0F60191838083E7CFD8011396B6
:101220002C911397821B9109069719F083E090E0A7
:10123000F1CF12968C911297813019F084E090E0F2
:10124000E9CF14968D919C919A8389830A5F1F4FF1
:101250001C830B832D8329813A814B815C816D81B5
:1012600070E080E090E00F900F900F900F900F9043
:10127000DF91CF911F910F91FF90EF90DF90CF9072
:10128000BF90AF909F908F907F9008950F931F9382
:10129000CF938C01C62F64600E948A086C2F6B7FED
:1012A000C8010E948A0883EC90E00197F1F7CF9182
:1012B0001F910F9108950F931F93CF93DF938C018C
:1012C000C62FD62FD07FD1606D2F0E948A086D2F38
:1012D000C8010E94460980E1C89FE0011124C16055
:1012E0006C2FC8010E948A086C2FC8010E94460911
:1012F00081E090E0DF91CF911F910F9108950F93BE
:101300001F93CF93DF938C01EB0182E090E00E946A
:10131000BC1CF80193838283FC01D183C083DF91DD
:10132000CF911F910F910895CF93DF93EC018881A6
:101330009981009711F00E94581D198218821D8210
:101340001C821B821A82DF91CF910895FC0180815B
:101350009181009711F00C94581D08958F929F92DF
:10136000AF92BF92CF92DF92EF92FF920F931F93B3
:10137000CF93DF93CDB7DEB7ADB6BEB680914C0349
:101380002DB73EB7281B31090FB6F8943EBF0FBEEC
:101390002DBF8DB79EB701966C01E0901B03F12C19
:1013A0008091170390911803D601FC019F01281B1F
:1013B000390B2E153F051CF421912D93F7CF809109
:1013C0001C03882359F1809113039091140328E0A2
:1013D00097FD09C068E671E00E94871C6DE270E02D
:1013E0000E94871C262F809115039091160368E0B8
:1013F00097FD08C068E671E00E94871C6DE270E00E
:101400000E94871CF601EE0DFF1D90E1699FB0015F
:101410001124262B2083F70131967F0186010E0DC2
:101420001F1D209121033091220340911F035091F1
:1014300020036091FD027091FE0280911D03817076
:101440000E948301E80EF91E86010E0D1F1D2091DA
:10145000250330912603409123035091240360918A
:10146000FF027091000380911D03869581700E9498
:101470008301E80EF91E86010E0D1F1D2091290320
:1014800030912A0340912703509128036091010372
:101490007091020380911D0382FB882780F90E94CE
:1014A0008301E80EF91E86010E0D1F1D20912D03EC
:1014B00030912E0340912B0350912C036091030334
:1014C0007091040380911D0383FB882780F90E949B
:1014D0008301E80EF91E86010E0D1F1D20913103B8
:1014E0003091320340912F035091300360910503F6
:1014F0007091060380911D03829581700E94830183
:10150000E80EF91E86010E0D1F1D20913503309146
:101510003603409133035091340360910703709177
:10152000080380911D0385FB882780F90E948301B1
:10153000E80EF91E86010E0D1F1D20913903309112
:101540003A03409137035091380360910B03709137
:101550000C0380911E0381700E948301E80EF91E26
:1015600086010E0D1F1D20913D0330913E034091D9
:101570003B0350913C036091090370910A038091F1
:101580001E03869581700E948301E80EF91E860174
:101590000E0D1F1D209141033091420340913F03E6
:1015A0005091400360910D0370910E0380911E03D2
:1015B00082FB882780F90E948301E80EF91E8601CC
:1015C0000E0D1F1D209145033091460340914303AA
:1015D0005091440360910F037091100380911E039A
:1015E00083FB882780F90E9483018E0D9F1D860151
:1015F000080F191F2091490330914A034091470376
:1016000050914803609111037091120380911E0361
:10161000829581700E9483010E9429064C014091AD
:101620004C0380914B0350E07A01FFEFEF1AFF0A61
:101630002DB73EB72E193F090FB6F8943EBF0FBE27
:101640002DBF0DB71EB70F5F1F4FEDB7FEB78183DC
:10165000B601C80101960E949E1EF4018381A70174
:10166000B80180640E94AA040FB6F894BEBE0FBEF3
:10167000ADBEDF91CF911F910F91FF90EF90DF9062
:10168000CF90BF90AF909F908F900895E82FE695F0
:10169000E695E6952091170330911803E20FF32F9A
:1016A000F11D282F277081E090E0A0E0B0E004C099
:1016B000880F991FAA1FBB1F2A95D2F72081822B62
:1016C00080838091190381110C94AE090895E82F4D
:1016D000E695E695E6952091170330911803E20F01
:1016E000F32FF11D282F277081E090E0A0E0B0E0FB
:1016F00004C0880F991FAA1FBB1F2A95D2F7809597
:101700009081892380838091190381110C94AE0903
:10171000089590911A03611104C0891730F40C9454
:10172000670B891710F40C94460B089580913102D1
:10173000882371F080911A038F3018F08EE00E9498
:10174000460B80911A038F3018F08EE00C94670BD3
:1017500008958091310281110EC080911A038F305B
:1017600018F08EE00E94460B80911A038F3018F01B
:101770008EE00C94670B08950F931F93CF93DF9324
:10178000EC0188819981009759F02A813B812617C5
:10179000370730F081E0DF91CF911F910F910895CD
:1017A0008B016F5F7F4F0E94E11D009759F0998375
:1017B00088831B830A832C813D81232B59F7FC01ED
:1017C0001082E8CF80E0E7CFCF92DF92EF92FF92D6
:1017D0000F931F93CF93DF93CDB7DEB7A2970FB6CA
:1017E000F894DEBF0FBECDBF8C01CB01BA01F8016A
:1017F0001182108213821282158214822AE0AE01B5
:101800004F5F5F4F6A010E948218F601019000202D
:10181000E9F731977F01EC18FD08B701C8010E9474
:10182000BC0B811112C0C8010E949409A2960FB688
:10183000F894DEBF0FBECDBFDF91CF911F910F9106
:10184000FF90EF90DF90CF900895F801F582E48249
:10185000B601808191810E94A71EE8CFEF92FF928E
:101860000F931F93CF93DF936115710541F480E0CF
:10187000DF91CF911F910F91FF90EF900895411547
:101880005105B1F07B01EC010C811D81040F151F86
:10189000B8010E94BC0B882351F3288139818C81C7
:1018A0009D81B701820F931F0E94A71E1D830C8389
:1018B00081E0DECFCF93DF93EC01FB0144815581C2
:1018C000608171810E942E0C811103C0CE010E94A3
:1018D0009409CE01DF91CF91089585ED8093BC00EE
:1018E0008091D2029091D302A091D402B091D502FE
:1018F0000796A11DB11D23E0B695A79597958795ED
:101900002A95D1F72091BC0024FD03C01092D0028B
:1019100008954091D2025091D3026091D402709107
:10192000D502452B462B472B69F30097A105B1053E
:1019300041F02AE22A95F1F700C00197A109B10907
:10194000E1CF8091D1020C94F3061F920F920FB653
:101950000F9211248F939F938091E1009091E10069
:10196000937F9093E10083FF0FC01092E90091E014
:101970009093EB001092EC0092E39093ED001092A4
:10198000A90298E09093F00082FF22C093E0909328
:10199000E9009091F200992319F09AE39093E800FE
:1019A0009091A702992341F09091A70291509093B2
:1019B000A702911101C05D9A9091A802992341F06C
:1019C0009091A80291509093A802911101C0289A79
:1019D00084FF18C08091E2008E7E81608093E200D7
:1019E0008091E1008F7E8093E1008091A6028E7E3F
:1019F00080618093A6029F918F910F900FBE0F90F0
:101A00001F90189580FFF7CF8091E2008E7E806155
:101A10008093E2008091E1008E7E8093E1008091CE
:101A2000A6028E7E8160E5CF1F920F920FB60F92B5
:101A30001124CF92DF92EF92FF920F931F932F9377
:101A40003F934F935F936F937F938F939F93AF9346
:101A5000BF93EF93FF93CF93DF93CDB7DEB76C9730
:101A6000DEBFCDBF1092E9008091E80083FF25C062
:101A700068E0CE0145960E94690282EF8093E800FB
:101A80008D8987FF39C09091E80090FFFCCF982F97
:101A9000907609F034C19E894F89588D2F89F88C32
:101AA000911131C0803861F58091A5028093F100D9
:101AB0001092F1008EEF8093E8006C960FB6F894C8
:101AC000DEBF0FBECDBFDF91CF91FF91EF91BF91F0
:101AD000AF919F918F917F916F915F914F913F91C6
:101AE0002F911F910F91FF90EF90DF90CF900F906B
:101AF0000FBE0F901F9018959EEF9093E800C7CFF0
:101B00001092F100D5CF913059F48111D3CF4130EB
:101B1000510581F68091A5028D7F8093A502CACFE1
:101B2000933049F48111C6CF4130510519F68091A7
:101B3000A5028260F2CF953041F48091E80080FFE9
:101B4000FCCF20682093E300B5CF963009F0A9C000
:101B50000B8D1C8D22E01092E9001092A3021092CE
:101B6000A202F2122EC01092A1021092A0020E94B4
:101B7000B7021F8299E09983FA8291E09E8390EAEE
:101B800098879AEF99872091A2023091A302275F4C
:101B90003F4F3C832B838D831092E9001092A30268
:101BA0001092A2021093A1020093A00249E050E01B
:101BB000BE016F5F7F4F80E00E9432020E94B70239
:101BC00079CF1093A1020093A0020E94A302DC012E
:101BD00012960D911C910115110509F451C1D801FE
:101BE000ED91FC910480F581E02DBE016B5E7F4F8D
:101BF000C8010995009709F03EC1F80100851185DB
:101C0000EACFF3E0FF120EC08F89882309F440C0A9
:101C1000823061F440E860E18DE992E00E94AF100B
:101C2000811148CF81E28093EB0047CF813029F4C6
:101C300040E86BE081E992E0F1CF833099F70E94B0
:101C4000A302DC011296ED90FC908E010F5F1F4FF6
:101C50006801E114F10479F0D701ED91FC9106805F
:101C6000F781E02DB801C7010995080F111DF70193
:101C7000E084F184EECFD8011C92F601019000209F
:101C8000E9F73197BF016C197D0940E0C601C6CF65
:101C90006BE772E0FB01449150E080E80E94320261
:101CA00009CF973009F4BECF983021F481E08093BA
:101CB000F10000CF993009F0FDCE837009F0B2CF6A
:101CC000E1E0F1E081E031E096E32191222371F03F
:101CD0008093E9003093EB00DF0111972C91209362
:101CE000EC009093ED008F5F873079F78EE780935B
:101CF000EA001092EA008F898093A902DBCE8B8DD7
:101D00009C8D1092E9001092A3021092A20290936F
:101D1000A1028093A002898D811192C08E899D8934
:101D2000913A49F4813209F07DCF47E050E06BE011
:101D300071E080E0B3CF913209F074CF833269F45F
:101D40008F89988DB0E0A0E08093070190930801FF
:101D5000A0930901B0930A01ADCE803269F480915D
:101D6000E80082FFFCCF67E08BE091E00E9469020F
:101D70008BEF8093E8009ECE823209F09BCE8F8954
:101D800080931201EEEFFFE7859194918B3F9C4D7C
:101D900051F1E0E0F8E080910B0190910C01A091ED
:101DA0000D01B0910E01803B9440A105B105F1F405
:101DB0008091120180FD1AC0EE3F8AE0F80789F594
:101DC00087E797E791838083809160008093A402E6
:101DD00088E19BE00FB6F894A895809360000FBE51
:101DE0009093600067CEEEEFFAE0D5CF80819181CD
:101DF0008737974709F05ECEA8958091600088618B
:101E0000809360008091A40280936000EE3F2AE0FE
:101E1000F20789F08091FE0A9091FF0A91838083F6
:101E200049CE808191818737980751F29093FF0ABC
:101E30008093FE0AC5CF1092FF0A1092FE0A3ACE96
:101E40000E94A302DC0112960D911C91011511054F
:101E500009F4E8CED801ED91FC910190F081E02DDC
:101E6000BE016B5E7F4FC8010995811123CEF80139
:101E700000851185EBCF181619060CF41BCED2CEB7
:101E8000F1E0FF12BECE6FE772E004CF1F920F9217
:101E90000FB60F9211242F933F938F939F93AF937D
:101EA000BF938091E8019091E901A091EA01B0917E
:101EB000EB013091E70123E0230F2D3758F5019610
:101EC000A11DB11D2093E7018093E8019093E901E2
:101ED000A093EA01B093EB018091EC019091ED01A8
:101EE000A091EE01B091EF010196A11DB11D80936B
:101EF000EC019093ED01A093EE01B093EF01BF913F
:101F0000AF919F918F913F912F910F900FBE0F90A6
:101F10001F90189526E8230F0296A11DB11DD2CF60
:101F20001F920F920FB60F9211242F933F934F934E
:101F30005F936F937F938F939F93AF93BF93EF9331
:101F4000FF938091B900887F803609F44AC0F0F58C
:101F5000883209F4A7C018F5803109F49BC0B8F4A1
:101F6000882309F4F9C0883009F494C0FF91EF91F7
:101F7000BF91AF919F918F917F916F915F914F91A1
:101F80003F912F910F900FBE0F901F9018958831A1
:101F900009F488C0803251F78093CE0214C0803497
:101FA00009F49DC040F48033B9F38833F9F6809387
:101FB000CE0285ECB0C0803509F485C0883509F4BF
:101FC00096C0883499F60E946D0CD0CF883909F4F8
:101FD0008CC038F5883729F050F4883611F08037F6
:101FE00029F683E08093D0021092CD0157C0883843
:101FF00009F47BC0803919F0803809F0B7CF80919F
:10200000CD01803208F071C0E091CD0181E08E0FEA
:102010008093CD018091BB00F0E0E355FE4F8083BB
:102020003DC0803B39F0E0F4803A09F479C0883A49
:1020300009F09CCF84E08093D0021092AC01109202
:10204000AB01E091F201F091F30109958091AB01B0
:1020500081110FC081E08093AB0110928B0109C008
:10206000803C09F4A6CF883C09F4A3CF883B09F053
:102070007DCFE091AC0181E08E0F8093AC01F0E068
:10208000E557FE4F80818093BB009091AC01809119
:10209000AB0129C08091AB028093BB0085EC80939B
:1020A000BC0064CF9091CD028091CC02981758F576
:1020B000E091CD0281E08E0F8093CD02F0E0E455F7
:1020C000FD4F8081E9CFE091CD0281E08E0F8093BA
:1020D000CD028091BB00F0E0E455FD4F80839091EC
:1020E000CD028091CC029817C8F285E8D8CFE09154
:1020F000CD0281E08E0F8093CD028091BB00F0E095
:10210000E455FD4F80838091CF0281115CCF81E047
:102110008093AA0284EA8093BC001092D00226CF5A
:1021200085EC8093BC001092D0028091CD0180326A
:1021300030F4E091CD01F0E0E355FE4F1082609164
:10214000CD0170E0E091F001F091F1018DEA91E0B4
:1021500009951092CD010ACF1092CE0234CFEF92A2
:10216000FF920F931F93CF93DF93F82E192FE62E34
:10217000042F81E0860F880F0E94040283E00E94F2
:102180000402CF2DD12FEC0EFD2EF11CCE15DF0554
:10219000B9F007FF13C0FE0184910E940402182FBA
:1021A00080E00E940402812321968111EFCFDF910C
:1021B000CF911F910F91FF90EF9008958881EDCFFF
:1021C00081E0F5CF8F929F92AF92BF92CF92DF9234
:1021D000EF92FF920F931F93CF93DF93CDB7DEB7AC
:1021E000C659D1090FB6F894DEBF0FBECDBF10920D
:1021F000500310924F0388EE93E0A0E0B0E080938C
:10220000510390935203A0935303B093540325E3D7
:1022100031E030934E0320934D032FEF3FEF309387
:102220005A03209359031092AF041092AE04809386
:10223000B0049093B104A093B204B093B30487E4C4
:1022400091E09093AD048093AC048CEA94E0909379
:10225000B9048093B8041092A3041092A20483E6F8
:1022600091E09093A1048093A00487E28093A4045A
:1022700084E18093A90484E08093AA041092AB04C3
:1022800001E0009397040E945605609398047093B0
:10229000990480939A0490939B0410929C0410924A
:1022A0009D0410929E0410929F0489E7A82E84E05A
:1022B000B82E89E591E090937A0480937904109286
:1022C0007C0410927B0490937E0480937D04109292
:1022D000800410927F0485E0809381048FE090E079
:1022E0009093830480938204109288041092870450
:1022F0001092890410928A0410928B0410928C041C
:10230000109286041092850410928F04109290040B
:10231000109291041092920410928E0410928D04E7
:102320001091FC021111B6C182E090E00E94BC1C29
:102330009093FB028093FA02DC01AD92BC92009371
:10234000FC0209E714E08091840480648093840493
:1023500062E085E00E940F041093860400938504D8
:1023600010938E0400938D048DE493E09093EA0320
:102370008093E903109218031092170310921B0325
:102380001092200310921F038FEF93E0909322038B
:102390008093210310922403109223039093260329
:1023A00080932503109228031092270390932A0309
:1023B0008093290310922C0310922B0390932E03E9
:1023C00080932D031092300310922F0390933203C9
:1023D00080933103109234031092330390933603A9
:1023E00080933503109238031092370390933A0389
:1023F0008093390310923C0310923B0390933E0369
:1024000080933D031092400310923F039093420348
:102410008093410310924403109243039093460328
:1024200080934503109248031092470390934A0308
:102430008093490373E070934B0320E220931A03C7
:1024400010921C0388E180931D038CE180931E038E
:1024500035E0398381E08A8399E09B8344E04C83B3
:1024600061EA6D838E8345E84F83788739879A8741
:1024700049E14B878C8749E24D872E8745E14F879D
:10248000188A45E2498B8A8BF5E7FB8B8C8BE5E953
:10249000ED8B2E8B25E52F8B188E25E6298F1A8E36
:1024A00051E85B8F22E02C8F3D8F8E8F9F8F88A30A
:1024B00046E1E42EE9A28AA3A0E8FA2EFBA206E2F6
:1024C0000CA31FEF1DA3BFE7BEA3FFA3A0E1A8A716
:1024D000E9A72AA76BA71CA69DA743E34EA79FA722
:1024E00044E348AB59AB2AAB40EC4BAB3CAB2DAB18
:1024F000EEAA8FABF8AE09AF1AAFBBAFFCAFADAF72
:10250000EEAF7FAF21966FAF219722961FAE229735
:1025100023969FAF239784EC24968FAF249725961C
:102520009FAF259785EC26968FAF269727969FAF6E
:10253000279788EC28968FAF289729965FAF299721
:102540002A962FAF2A972B964FAF2B972C964FAFEB
:102550002C978BE490E00E94BC1C7C018BE4FE0174
:102560003196D70101900D928A95E1F787E090E0CE
:102570000E94BC1C8C01DC0111961C921E921396C9
:10258000FC92EE9212978BE490E015969C938E93BA
:10259000149716961C920E942906FC01A385B48507
:1025A000109709F0A7C01487038785859685D80101
:1025B00014962D913C91820F931F96878587909159
:1025C0001A03892F869586958695977009F09AC08B
:1025D00080931B0310911B03812F90E0009711F44F
:1025E00081E090E00E94BC1C909318038093170335
:1025F00081E090911C03911101C080E0165F810F72
:1026000080934C031092FE021092FD021092000380
:102610001092FF0210920203109201031092040321
:102620001092030310920603109205031092080300
:102630001092070310920A031092090310920C03E0
:1026400010920B0310920E0310920D0310921003C0
:1026500010920F0310921203109211038FEF9FEF4D
:1026600090931403809313039093160380931503A0
:1026700090E080E020911B032817190609F00CF464
:1026800043C0E0911703F0911803E80FF91F10827F
:102690000196F0CFE12EF12C4701880C991CC40162
:1026A0000E94BC1C6C016091FA027091FB02A401B3
:1026B0000E949E1EC7010196880F991F0E94BC1C94
:1026C0007C019093FB028093FA02A401B6010E9460
:1026D0009E1EE80CF91CF701B182A0821F5F1093C7
:1026E000FC02C114D10409F42CCEC6010E94581D6D
:1026F00028CEDC018D919C9111970097D1F70D9315
:102700001C9353CF8F5F64CFCA56DF4F0FB6F89438
:10271000DEBF0FBECDBFDF91CF911F910F91FF9014
:10272000EF90DF90CF90BF90AF909F908F900895E3
:10273000CF93DF93CDB7DEB7E7970FB6F894DEBF40
:102740000FBECDBF789484B5826084BD84B58160AE
:1027500084BD85B5826085BD85B5816085BD80916C
:102760006E00816080936E001092810080918100E4
:1027700082608093810080918100816080938100DC
:1027800080918000816080938000809191008260C0
:10279000809391008091910081608093910080915D
:1027A00090008160809390008091C100846080934C
:1027B000C1008091C10082608093C1008091C100FE
:1027C00081608093C1008091C30081608093C300C9
:1027D0008091C00082608093C0008091C2008160BF
:1027E0008093C20080917A00846080937A00809107
:1027F0007A00826080937A0080917A008160809371
:102800007A0080917A00806880937A001092A90201
:102810001092A5021092A6028091D7008160809349
:10282000D70080EA8093D80089B5806189BD89B5D9
:10283000826089BD09B400FEFDCF0E9492048091A0
:10284000D8008F7C80618093D8008091E000807FE9
:102850008093E0008091E1008E7E8093E1008DE026
:102860008093E200559A209A01E311E07CE2672E02
:1028700071E0772E62E0F30181913F010E940F0425
:1028800006151705B9F761E086E00E940F0461E0C4
:1028900087E00E940F0461E084E00E940F04109220
:1028A0006302109262021092D7021092F9020E9403
:1028B000D50688EE92E09093F3018093F20189EEC1
:1028C00092E09093F1018093F0018FEF9FEF90934E
:1028D0005A038093590381E0809319030E94AE0943
:1028E00069EA7BE08DE794E00E949B0666E97BE065
:1028F00089E794E00E949B0688248A9463E0962EE0
:10290000A12CB12C5524539445EE442E50E0252E95
:1029100050E0352E1EAA8091FC02CEA8C81608F001
:1029200096C08C2D90E0880F991FE091FA02F091EB
:10293000FB02E80FF91F008111810115110509F44F
:1029400070C00E945605F801228D338D448D558D3F
:102950006B017C01C21AD30AE40AF50AB701A60189
:1029600081859285B0E0A0E0481759076A077B0788
:1029700008F457C083858F7C83870E945605F80131
:10298000628F738F848F958F838586FF4EC080857D
:102990000E94B803892B09F04EC0F801838581603D
:1029A0008387F801838580FD4AC083FF48C0857F07
:1029B000846083870E945605F80120893189621B53
:1029C000730B77876687B801645F7F4FC8010E94E9
:1029D000A206F80183858970893049F40E94560562
:1029E000F80120893189621B730B77876687F801AC
:1029F000838580FF28C083FD26C08A6083870E946C
:102A00005605F801608B718B828B938B668B778B6D
:102A1000808F918FB8016C5E7F4FC80104960E9431
:102A2000A206FEA9FF5FFEAB76CF80850E94B803A9
:102A3000892B09F0B2CFF80183858E7FB1CF8B7FD0
:102A4000F8018387C6CF8D7FF8018387EACF8DE4B5
:102A500093E00E945203892BD9F089EE93E00E9403
:102A6000A20829833A834B835C836D83662381F0BC
:102A7000EB81FC8189819A818230910509F4DEC065
:102A800008F0C5C0009709F4CFC0019709F4D4C07D
:102A900060E086E00E94E10361E087E00E94E103DC
:102AA0008AE892E09FAB8EAB7C010CE211E0F8016A
:102AB00081918F010E94B80321E0892B09F020E069
:102AC000F70121937F012FE8C22E22E0D22ECE16ED
:102AD000DF0669F761E086E00E94E10360E087E0DD
:102AE0000E94E10386019CE2E92E91E0F92EF701B4
:102AF00081917F010E94B80321E0892B09F020E039
:102B0000F80121938F01E614F70489F75092D60259
:102B1000F0E2F093F8021092D7021092F90261E00D
:102B20008CEA94E00E945B0881E00E941407811106
:102B300067C10E946D046B017C018091D0028111FC
:102B400085C05092D0025092CF02CC24CA94C09239
:102B5000CE021092CD028BE08093CC025092AB0259
:102B60008091AB0280648093AB028091AA02813095
:102B700009F05BC21092AA020E946D046B017C01F5
:102B80008091AB028093BB008091D2029091D302DE
:102B9000A091D402B091D502892B8A2B8B2BA1F066
:102BA0000E946D040091D2021091D3022091D402B0
:102BB0003091D5026C197D098E099F0906171707F8
:102BC0002807390708F463C08091BC0083FDD8CF83
:102BD00085EC8093BC000E946D046B017C018091A8
:102BE000D002813009F424C28091CD028C3008F0EB
:102BF00041C28091CD02ECEAF2E0A4E6B2E090E0BE
:102C0000981709F449C021912D939F5FF9CF833024
:102C10009105C1F0049709F03BCF80819181909399
:102C200061028093600234CF8EE6A4EFB1E00190A0
:102C30000D928A95E1F72CCF82E5F7CF81E1A6E4EA
:102C4000B2E0F5CF89E0A7E5B2E0F1CF8091D20202
:102C50009091D302A091D402B091D502892B8A2BF6
:102C60008B2B09F46ACF0E946D040091D20210915F
:102C7000D3022091D4023091D5026C197D098E09BE
:102C80009F09061717072807390708F056CF8091C4
:102C9000D1020E94F30680E01092630280936202E8
:102CA0008C3009F0ADC088EB94E00E94A208298323
:102CB0003A834B835C836D83662309F4A1C0EB8167
:102CC000FC8186E0A4E8B2E001900D928A95E1F7DC
:102CD000F09084026F2D617080E00E94890B0F2DAF
:102CE00010E0B80175956795617081E00E94890BCD
:102CF000B8017595679575956795617082E00E943A
:102D0000890BB80123E0759567952A95E1F7617005
:102D100083E00E94890BB80134E0759567953A9578
:102D2000E1F7617084E00E94890BB80145E0759578
:102D300067954A95E1F7617085E00E94890B56E03E
:102D4000159507955A95E1F7602F617086E00E940E
:102D5000890B6F2D661F6627661F87E00E94890B0F
:102D600000918502602F617088E00E94890B10E05D
:102D7000B80175956795617089E00E94890BB8016B
:102D8000759567957595679561708AE00E94890BC6
:102D9000B801A3E075956795AA95E1F761708BE09E
:102DA0000E94890BB801B4E075956795BA95E1F773
:102DB00061708CE00E94890B85E0159507958A95D6
:102DC000E1F7602F61708DE00E94890B809186028F
:102DD00090918702909304038093030380911903D9
:102DE00081110E94AE09809188029091890290938E
:102DF0000603809305038091190381110E94AE0997
:102E000084E10E944B0490930E0380930D03809104
:102E1000190381110E94AE0985E10E944B04909331
:102E20000C0380930B038091190381110E94AE095A
:102E300083E10E944B049093100380930F038091D1
:102E4000190381110E94AE0982E10E944B04909304
:102E50001203809311038091190381110E94AE091E
:102E60001FE0EEA9FFA96191FFABEEAB812F0E949D
:102E7000890B1F5F1931A9F782E10E944B047C0185
:102E800083E10E944B0424E630E0DC010E94A11C97
:102E9000A50194010E94F51BBA01A901CE018296F9
:102EA0000E94E40B84E10E944B0424E630E0DC0144
:102EB0000E94A11CA50194010E94F51BBA01A90161
:102EC000CE0188960E94E40B1FA61EA619AA18AA76
:102ED0001BAA1AAAB70190E080E00E94FA1A2DE01E
:102EE00032E348EC5DE30E94371B8E010F5F1F4FFA
:102EF00022E044E00E9464186C01009779F0FC0124
:102F000001900020E9F731978F01081B190BB801D8
:102F1000CE018E960E94BC0B8111AEC0CE018E9662
:102F20000E9494091A8219821C821B821E821D82B1
:102F300067E070E0CE0101960E94BC0B8111A4C035
:102F4000CE0101960E949409BE01625D7F4FCE01C1
:102F500001960E945A0C8C0148E050E063E771E052
:102F60000E942E0C811103C0C8010E949409BE0169
:102F7000685D7F4FC8010E945A0C8C014AE050E006
:102F80006CE771E00E942E0C811103C0C8010E9401
:102F90009409BE016E5D7F4FC8010E945A0C8C01DE
:102FA00085E28CAB1DAA41E050E0BE016C5C7F4F16
:102FB000C8010E942E0C811103C0C8010E9494090F
:102FC000F80144815581608171818DE493E00E9414
:102FD000400542E050E067E871E08DE493E00E9434
:102FE0004005CE0101960E94A609CE018E960E9450
:102FF000A609CE0188960E94A609CE0182960E945B
:10300000A609F4E6EF1AF10861E025E3E21623E0F1
:10301000F20608F460E084E00E94E1032114310428
:1030200009F478CC0E9400006FCC4092BC00D3CD54
:103030008091D2029091D302A091D402B091D50296
:10304000892B8A2B8B2B09F4CACD0E946D04009129
:10305000D2021091D3022091D4023091D5026C1982
:103060007D098E099F09061717072807390708F0F9
:10307000B6CD0DCE8CE0BFCD1BAB0AABB6018EA595
:103080009FA50E94A71E4ECF87E090E09E838D8370
:103090006BE671E089819A810E94A71E55CF9091BD
:1030A000FC02E091FA02F091FB0280E0981759F0DF
:1030B000219131912957344021F4DF0112971D925B
:1030C0001C928F5FF3CF0895EF920F931F93CF93CE
:1030D000DF93E80134E047FD34E1042E000C550B8A
:1030E00057FF03C0519541955109E32E022F242F1C
:1030F000AE010E94B318CE01DF91CF911F910F91C5
:10310000EF900895BB272A3051F4992342F4BDE291
:1031100090958095709561957F4F8F4F9F4F0C9440
:103120009218BB27FA01A62F621771058105910538
:10313000330B30FB66F0AA27660F771F881F991F95
:10314000AA1FA21710F0A21B63953850A9F7A05D23
:10315000AA3308F0A95DA19336F7B111B19310829B
:10316000CA010C94EA1AA9E0B0E0E9EBF8E10C948A
:10317000251C6A01F22EB02E102FFBE3AF2EA016F5
:1031800008F41BE31F5F012F27E0AE014F5F5F4F85
:103190000E94121ABC018981982F9970913009F40C
:1031A0003FC09BE2E1FC04C09E2D9170E0FC3AC060
:1031B0005E2D5071E82FE87083FF46C084E09111C6
:1031C00001C083E0EF2DE81B8F1508F0E0E0D60189
:1031D0008E2F20E2552351F1992329F0D6019C939B
:1031E000C60101966C0196012D5F3F4FE2FE24C09F
:1031F0008EE4D6018C9391E411969C9311971296CC
:103200008C93D9018E2F90E281111BC0E20FF32F16
:10321000F11D10828EEF9FEF2996ECE00C94411C7B
:103220009DE2C6CF90E2C4CF2D9381508111FCCF97
:10323000CE0ED11CE0E0D0CF8EE6D6018C9391E685
:10324000DBCF9D938150E0CF482F447082FF3DC07B
:1032500084E0911101C083E08F1510F4EF2DE81B7D
:10326000D6018E2F20E2552309F1992329F0D601AA
:103270009C93C60101966C0196012D5F3F4FE2FEC3
:103280001BC089E4D6018C938EE411968C93119720
:1032900086E412968C93D9018E2F90E2882309F44C
:1032A000B5CF9D938150FACF2D9381508111FCCFE2
:1032B000CE0ED11CE0E0D9CF89E6D6018C938EE604
:1032C00011968C93119786E6E4CF9B0177FF02C09D
:1032D00030E020E0A1E0B0E0911102C0B0E0A0E059
:1032E000F9013196AE0FBF1F8B2C912CBB2009F436
:1032F00061C05401EFEFAE1ABE0AAA0DBB1DFA164B
:103300001B0619F014F04F2D4A1B511188C0E3FC25
:1033100059C07601A42FB0E2A1114FC0C40ED11C38
:10332000992309F45BC040E0D6011196F601908321
:103330006D01552309F448C0012F060F9A81582FBB
:10334000507184FF03C0913309F4015010160CF042
:1033500047C0093008F008E0EEE2FE2E5B01A01A3B
:10336000B10885019194819491082F3F320729F487
:10337000D601FC92F60131966F016217730794F142
:10338000021713077CF5DB01A21BB30BAA24A3943D
:10339000B12CAC0EBD1EAA0DBB1D11968C912150F7
:1033A0003109D601119628153905F4F0F60180830C
:1033B0006D01DBCFB12CA12CA0CFF701B1937F0120
:1033C000A150AACF9111B0CFD601942F50E302C0E3
:1033D0005D9391509111FCCFC40ED11C40E0ACCF55
:1033E00001E0BACF80E3DBCF6217730731F4963385
:1033F00088F4953311F4552369F0F6018083FD01BB
:10340000842F90E2811108C0A40FB11D1C9290E09E
:1034100080E002CF81E3F1CF91938150F3CF9111FE
:1034200083CF8ACF283008F027E03327DA01990FBD
:10343000311D87FD916000966105710539F4326098
:103440002E5F3D9330E32A95E1F708959F3F30F0DA
:1034500080387105610509F03C5F3C5F3D93913018
:1034600008F08068911DDF93CF931F930F93FF9215
:10347000EF92192F987F9695E92F96959695E90FDB
:10348000FF27EA5FFE4F99273327EE24FF24A70189
:10349000E70105900894079428F4360FE71EF81EFC
:1034A000491F511D660F771F881F991F0694A1F7AA
:1034B0000590079428F4E70EF81E491F561FC11DFA
:1034C000770F881F991F661F0694A1F70590079430
:1034D00028F4F80E491F561FC71FD11D880F991FCA
:1034E000661F771F0694A1F70590079420F4490FF3
:1034F000561FC71FD81F990F661F771F881F069476
:10350000A9F784911095177041F0D695C7955795F6
:103510004795F794E7941A95C1F7ECEAF0E06894C0
:103520001590159135916591959105907FE2739570
:10353000E118F10A430B560BC90BD009C0F7E10C97
:10354000F11E431F561FC91FD01D7EF4703311F4A6
:103550008A95E6CFE894015030F0080F0AF400276E
:10356000021708F4202F2395022F7A3328F079E3ED
:103570007D932A95E9F710C07D932A9589F60694E4
:1035800097956795379517951794E118F10A430BAE
:10359000560BC90BD00998F023957E9173957A3319
:1035A00008F070E37C932013B8F77E9170617D93EF
:1035B00030F0839571E37D9370E32A95E1F7112450
:1035C000EF90FF900F911F91CF91DF91992787FD89
:1035D00090950895DC01FC01672F71917723E1F745
:1035E000329704C07C916D9370836291AE17BF07D0
:1035F000C8F30895E89409C097FB3EF49095809530
:10360000709561957F4F8F4F9F4F9923A9F0F92FA8
:1036100096E9BB279395F695879577956795B79526
:10362000F111F8CFFAF4BB0F11F460FF1BC06F5F0C
:103630007F4F8F4F9F4F16C0882311F096E911C01E
:10364000772321F09EE8872F762F05C0662371F03F
:1036500096E8862F70E060E02AF09A95660F771F53
:10366000881FDAF7880F9695879597F908950E9435
:103670004A1B0C94BB1B0E94AD1B38F00E94B41B6C
:1036800020F0952311F00C94A41B0C94AA1B112478
:103690000C94EF1B0E94CC1B70F3959FC1F3950F08
:1036A00050E0551F629FF001729FBB27F00DB11DC6
:1036B000639FAA27F00DB11DAA1F649F6627B00D56
:1036C000A11D661F829F2227B00DA11D621F739F3F
:1036D000B00DA11D621F839FA00D611D221F749F4D
:1036E0003327A00D611D231F849F600D211D822F94
:1036F000762F6A2F11249F5750409AF0F1F08823BB
:103700004AF0EE0FFF1FBB1F661F771F881F9150E7
:103710005040A9F79E3F510580F00C94A41B0C94D7
:10372000EF1B5F3FE4F3983ED4F38695779567955A
:10373000B795F795E7959F5FC1F7FE2B880F911D11
:103740009695879597F9089597F99F6780E870E0B7
:1037500060E008959FEF80EC089500240A94161607
:10376000170618060906089500240A94121613066F
:10377000140605060895092E0394000C11F48823FD
:1037800052F0BB0F40F4BF2B11F460FF04C06F5F19
:103790007F4F8F4F9F4F089557FD9058440F551FEF
:1037A00059F05F3F71F04795880F97FB991F61F0C3
:1037B0009F3F79F087950895121613061406551F3A
:1037C000F2CF4695F1DF08C0161617061806991FA6
:1037D000F1CF86957105610508940895E894BB279B
:1037E00066277727CB0197F90895052E97FB1EF4DE
:1037F00000940E940C1C57FD07D00E94561C07FC29
:1038000003D04EF40C940C1C5095409530952195A6
:103810003F4F4F4F5F4F08959095809570956195FC
:103820007F4F8F4F9F4F08950E94781CA59F900D4A
:10383000B49F900DA49F800D911D112408952F9287
:103840003F924F925F926F927F928F929F92AF9230
:10385000BF92CF92DF92EF92FF920F931F93CF937D
:10386000DF93CDB7DEB7CA1BDB0B0FB6F894DEBF14
:103870000FBECDBF09942A88398848885F846E843A
:103880007D848C849B84AA84B984C884DF80EE8084
:10389000FD800C811B81AA81B981CE0FD11D0FB68D
:1038A000F894DEBF0FBECDBFED010895A1E21A2E40
:1038B000AA1BBB1BFD010DC0AA1FBB1FEE1FFF1FD4
:1038C000A217B307E407F50720F0A21BB30BE40B24
:1038D000F50B661F771F881F991F1A9469F760956B
:1038E0007095809590959B01AC01BD01CF01089525
:1038F000A29FB001B39FC001A39F700D811D112431
:10390000911DB29F700D811D1124911D089597FB8B
:10391000072E16F4009407D077FD09D00E94A81C4A
:1039200007FC05D03EF4909581959F4F08957095C2
:1039300061957F4F0895EE0FFF1F0590F491E02DE4
:1039400009940E94781CB7FF0895821B930B089579
:10395000AA1BBB1B51E107C0AA1FBB1FA617B707B5
:1039600010F0A61BB70B881F991F5A95A9F78095D1
:103970009095BC01CD0108950F931F93CF93DF93D2
:103980008230910510F482E090E0E0914A05F091D8
:103990004B0530E020E0B0E0A0E0309799F421152D
:1039A000310509F44AC0281B390B24303105D8F5FC
:1039B0008A819B816115710589F1FB019383828363
:1039C000FE0111C0408151810281138148175907BE
:1039D000E0F04817590799F4109761F012960C938C
:1039E000129713961C933296CF01DF91CF911F91BE
:1039F0000F91089500934A0510934B05F4CF2115BC
:103A0000310551F04217530738F0A901DB019A0143
:103A1000BD01DF01F801C1CFEF01F9CF90934B0554
:103A200080934A05CDCFFE01E20FF31F819391935E
:103A30002250310939832883D7CF2091480530910E
:103A40004905232B41F42091150130911601309343
:103A50004905209348052091130130911401211547
:103A6000310541F42DB73EB740911701509118012F
:103A7000241B350BE0914805F0914905E217F30747
:103A8000A0F42E1B3F0B2817390778F0AC014E5FCE
:103A90005F4F2417350748F04E0F5F1F50934905BD
:103AA00040934805819391939FCFF0E0E0E09CCF55
:103AB000CF93DF930097E9F0FC01329713821282D3
:103AC000A0914A05B0914B05ED0130E020E0109740
:103AD000A1F420813181820F931F209148053091FC
:103AE00049052817390709F061C0F0934905E093AB
:103AF0004805DF91CF910895EA01CE17DF07E8F579
:103B00004A815B819E0141155105B1F7E901FB83B3
:103B1000EA8349915991C40FD51FEC17FD0761F451
:103B2000808191810296840F951FE9019983888392
:103B3000828193819B838A83F0E0E0E012968D91ED
:103B40009C9113970097B9F52D913C911197CD0158
:103B50000296820F931F209148053091490528173E
:103B6000390739F6309751F510924B0510924A05F6
:103B7000B0934905A0934805BCCFD383C28340814D
:103B80005181840F951FC817D90761F44E5F5F4FAD
:103B900088819981480F591F518340838A819B8175
:103BA000938382832115310509F0B0CFF0934B0543
:103BB000E0934A059ECFFD01DC01C0CF1382128243
:103BC000D7CFB0E0A0E0E7EEFDE10C94211C8C0122
:103BD000009751F4CB010E94BC1C8C01C801CDB7E9
:103BE000DEB7E0E10C943D1CFC01E60FF71F9C01E1
:103BF00022503109E217F30708F49DC0D901CD9195
:103C0000DC911197C617D70798F0C530D10530F36E
:103C1000CE0104978617970708F3C61BD70B229788
:103C2000C193D1936D937C93CF010E94581DD6CF41
:103C30005B01AC1ABD0A4C018C0E9D1EA0914A0579
:103C4000B0914B05512C412CF12CE12C109731F502
:103C500080914805909149058815990509F05CC047
:103C60004616570608F058C0809113019091140130
:103C7000009741F48DB79EB74091170150911801FC
:103C8000841B950BE817F90708F055C0F093490518
:103C9000E0934805F90171836083A0CF8D919C91D9
:103CA000119712966C90129713967C901397A81503
:103CB000B90559F56C0142E0C40ED11CCA14DB04ED
:103CC00020F1AC014A195B09DA011296159780F0D0
:103CD0006282738251834083D9016D937C93E11496
:103CE000F10471F0D7011396FC93EE93129776CFFF
:103CF00022968C0F9D1FF90191838083F301EFCFF2
:103D0000F0934B05E0934A0569CF4816590608F42D
:103D10002C017D01D3019ACFCB010E94BC1C7C01F8
:103D2000009749F0AE01B8010E949E1EC8010E9492
:103D3000581D870153CF10E000E050CFFB01DC019C
:103D400002C001900D9241505040D8F70895FB01F8
:103D5000DC0101900D920020E1F7089511E0C8E523
:103D6000D1E004C0FE010E949B1C2196C935D107F9
:063D7000C9F7F894FFCF33
:103D760000C18081000000FFFFFFFF00E10000009E
:103D860000000000004C058000000000006205DE17
:103D960005A00585051415131205060708090A105E
:103DA6000E00000000EA0240050B03000352031058
:103DB600032E03000000005B082E089F0804082756
:103DC6000814080508000000007F09A2069B0600EB
:103DD6000000005B0976029F089E08576865656CBF
:103DE6003A2000252C204761733A2000252C2042DA
:0A3DF60072616B653A20000D0A00AF
:00000001FF
